{"abi":[{"inputs":[{"internalType":"uint256","name":"minimum","type":"uint256"},{"internalType":"address","name":"creator","type":"address"}],"stateMutability":"nonpayable","type":"constructor"},{"inputs":[{"internalType":"uint256","name":"index","type":"uint256"}],"name":"approveRequest","outputs":[],"stateMutability":"nonpayable","type":"function"},{"inputs":[{"internalType":"address","name":"","type":"address"}],"name":"approvers","outputs":[{"internalType":"bool","name":"","type":"bool"}],"stateMutability":"view","type":"function"},{"inputs":[],"name":"contribute","outputs":[],"stateMutability":"payable","type":"function"},{"inputs":[{"internalType":"string","name":"description","type":"string"},{"internalType":"uint256","name":"value","type":"uint256"},{"internalType":"address","name":"recipient","type":"address"}],"name":"createRequest","outputs":[],"stateMutability":"nonpayable","type":"function"},{"inputs":[{"internalType":"uint256","name":"index","type":"uint256"}],"name":"finalizeRequest","outputs":[],"stateMutability":"nonpayable","type":"function"},{"inputs":[],"name":"manager","outputs":[{"internalType":"address","name":"","type":"address"}],"stateMutability":"view","type":"function"},{"inputs":[],"name":"minimumContribution","outputs":[{"internalType":"uint256","name":"","type":"uint256"}],"stateMutability":"view","type":"function"},{"inputs":[{"internalType":"uint256","name":"","type":"uint256"}],"name":"requests","outputs":[{"internalType":"string","name":"description","type":"string"},{"internalType":"uint256","name":"value","type":"uint256"},{"internalType":"address payable","name":"recipient","type":"address"},{"internalType":"bool","name":"complete","type":"bool"},{"internalType":"uint256","name":"approvalCount","type":"uint256"}],"stateMutability":"view","type":"function"}],"devdoc":{"kind":"dev","methods":{},"version":1},"evm":{"assembly":"    /* \"Campaign.sol\":424:2417  contract Campaign {... */\n  mstore(0x40, 0x80)\n    /* \"Campaign.sol\":1057:1173  constructor(uint minimum, address creator) {... */\n  callvalue\n  dup1\n  iszero\n  tag_1\n  jumpi\n  0x00\n  dup1\n  revert\ntag_1:\n  pop\n  mload(0x40)\n  sub(codesize, bytecodeSize)\n  dup1\n  bytecodeSize\n  dup4\n  codecopy\n  dup2\n  dup2\n  add\n  0x40\n  mstore\n  dup2\n  add\n  swap1\n  tag_2\n  swap2\n  swap1\n  tag_3\n  jump\t// in\ntag_2:\n    /* \"Campaign.sol\":1120:1127  creator */\n  dup1\n    /* \"Campaign.sol\":1110:1117  manager */\n  0x00\n  dup1\n    /* \"Campaign.sol\":1110:1127  manager = creator */\n  0x0100\n  exp\n  dup2\n  sload\n  dup2\n  0xffffffffffffffffffffffffffffffffffffffff\n  mul\n  not\n  and\n  swap1\n  dup4\n  0xffffffffffffffffffffffffffffffffffffffff\n  and\n  mul\n  or\n  swap1\n  sstore\n  pop\n    /* \"Campaign.sol\":1159:1166  minimum */\n  dup2\n    /* \"Campaign.sol\":1137:1156  minimumContribution */\n  0x01\n    /* \"Campaign.sol\":1137:1166  minimumContribution = minimum */\n  dup2\n  swap1\n  sstore\n  pop\n    /* \"Campaign.sol\":1057:1173  constructor(uint minimum, address creator) {... */\n  pop\n  pop\n    /* \"Campaign.sol\":424:2417  contract Campaign {... */\n  jump(tag_6)\n    /* \"#utility.yul\":88:205   */\ntag_8:\n    /* \"#utility.yul\":197:198   */\n  0x00\n    /* \"#utility.yul\":194:195   */\n  dup1\n    /* \"#utility.yul\":187:199   */\n  revert\n    /* \"#utility.yul\":334:411   */\ntag_10:\n    /* \"#utility.yul\":371:378   */\n  0x00\n    /* \"#utility.yul\":400:405   */\n  dup2\n    /* \"#utility.yul\":389:405   */\n  swap1\n  pop\n    /* \"#utility.yul\":334:411   */\n  swap2\n  swap1\n  pop\n  jump\t// out\n    /* \"#utility.yul\":417:539   */\ntag_11:\n    /* \"#utility.yul\":490:514   */\n  tag_23\n    /* \"#utility.yul\":508:513   */\n  dup2\n    /* \"#utility.yul\":490:514   */\n  tag_10\n  jump\t// in\ntag_23:\n    /* \"#utility.yul\":483:488   */\n  dup2\n    /* \"#utility.yul\":480:515   */\n  eq\n    /* \"#utility.yul\":470:533   */\n  tag_24\n  jumpi\n    /* \"#utility.yul\":529:530   */\n  0x00\n    /* \"#utility.yul\":526:527   */\n  dup1\n    /* \"#utility.yul\":519:531   */\n  revert\n    /* \"#utility.yul\":470:533   */\ntag_24:\n    /* \"#utility.yul\":417:539   */\n  pop\n  jump\t// out\n    /* \"#utility.yul\":545:688   */\ntag_12:\n    /* \"#utility.yul\":602:607   */\n  0x00\n    /* \"#utility.yul\":633:639   */\n  dup2\n    /* \"#utility.yul\":627:640   */\n  mload\n    /* \"#utility.yul\":618:640   */\n  swap1\n  pop\n    /* \"#utility.yul\":649:682   */\n  tag_26\n    /* \"#utility.yul\":676:681   */\n  dup2\n    /* \"#utility.yul\":649:682   */\n  tag_11\n  jump\t// in\ntag_26:\n    /* \"#utility.yul\":545:688   */\n  swap3\n  swap2\n  pop\n  pop\n  jump\t// out\n    /* \"#utility.yul\":694:820   */\ntag_13:\n    /* \"#utility.yul\":731:738   */\n  0x00\n    /* \"#utility.yul\":771:813   */\n  0xffffffffffffffffffffffffffffffffffffffff\n    /* \"#utility.yul\":764:769   */\n  dup3\n    /* \"#utility.yul\":760:814   */\n  and\n    /* \"#utility.yul\":749:814   */\n  swap1\n  pop\n    /* \"#utility.yul\":694:820   */\n  swap2\n  swap1\n  pop\n  jump\t// out\n    /* \"#utility.yul\":826:922   */\ntag_14:\n    /* \"#utility.yul\":863:870   */\n  0x00\n    /* \"#utility.yul\":892:916   */\n  tag_29\n    /* \"#utility.yul\":910:915   */\n  dup3\n    /* \"#utility.yul\":892:916   */\n  tag_13\n  jump\t// in\ntag_29:\n    /* \"#utility.yul\":881:916   */\n  swap1\n  pop\n    /* \"#utility.yul\":826:922   */\n  swap2\n  swap1\n  pop\n  jump\t// out\n    /* \"#utility.yul\":928:1050   */\ntag_15:\n    /* \"#utility.yul\":1001:1025   */\n  tag_31\n    /* \"#utility.yul\":1019:1024   */\n  dup2\n    /* \"#utility.yul\":1001:1025   */\n  tag_14\n  jump\t// in\ntag_31:\n    /* \"#utility.yul\":994:999   */\n  dup2\n    /* \"#utility.yul\":991:1026   */\n  eq\n    /* \"#utility.yul\":981:1044   */\n  tag_32\n  jumpi\n    /* \"#utility.yul\":1040:1041   */\n  0x00\n    /* \"#utility.yul\":1037:1038   */\n  dup1\n    /* \"#utility.yul\":1030:1042   */\n  revert\n    /* \"#utility.yul\":981:1044   */\ntag_32:\n    /* \"#utility.yul\":928:1050   */\n  pop\n  jump\t// out\n    /* \"#utility.yul\":1056:1199   */\ntag_16:\n    /* \"#utility.yul\":1113:1118   */\n  0x00\n    /* \"#utility.yul\":1144:1150   */\n  dup2\n    /* \"#utility.yul\":1138:1151   */\n  mload\n    /* \"#utility.yul\":1129:1151   */\n  swap1\n  pop\n    /* \"#utility.yul\":1160:1193   */\n  tag_34\n    /* \"#utility.yul\":1187:1192   */\n  dup2\n    /* \"#utility.yul\":1160:1193   */\n  tag_15\n  jump\t// in\ntag_34:\n    /* \"#utility.yul\":1056:1199   */\n  swap3\n  swap2\n  pop\n  pop\n  jump\t// out\n    /* \"#utility.yul\":1205:1712   */\ntag_3:\n    /* \"#utility.yul\":1284:1290   */\n  0x00\n    /* \"#utility.yul\":1292:1298   */\n  dup1\n    /* \"#utility.yul\":1341:1343   */\n  0x40\n    /* \"#utility.yul\":1329:1338   */\n  dup4\n    /* \"#utility.yul\":1320:1327   */\n  dup6\n    /* \"#utility.yul\":1316:1339   */\n  sub\n    /* \"#utility.yul\":1312:1344   */\n  slt\n    /* \"#utility.yul\":1309:1428   */\n  iszero\n  tag_36\n  jumpi\n    /* \"#utility.yul\":1347:1426   */\n  tag_37\n  tag_8\n  jump\t// in\ntag_37:\n    /* \"#utility.yul\":1309:1428   */\ntag_36:\n    /* \"#utility.yul\":1467:1468   */\n  0x00\n    /* \"#utility.yul\":1492:1556   */\n  tag_38\n    /* \"#utility.yul\":1548:1555   */\n  dup6\n    /* \"#utility.yul\":1539:1545   */\n  dup3\n    /* \"#utility.yul\":1528:1537   */\n  dup7\n    /* \"#utility.yul\":1524:1546   */\n  add\n    /* \"#utility.yul\":1492:1556   */\n  tag_12\n  jump\t// in\ntag_38:\n    /* \"#utility.yul\":1482:1556   */\n  swap3\n  pop\n    /* \"#utility.yul\":1438:1566   */\n  pop\n    /* \"#utility.yul\":1605:1607   */\n  0x20\n    /* \"#utility.yul\":1631:1695   */\n  tag_39\n    /* \"#utility.yul\":1687:1694   */\n  dup6\n    /* \"#utility.yul\":1678:1684   */\n  dup3\n    /* \"#utility.yul\":1667:1676   */\n  dup7\n    /* \"#utility.yul\":1663:1685   */\n  add\n    /* \"#utility.yul\":1631:1695   */\n  tag_16\n  jump\t// in\ntag_39:\n    /* \"#utility.yul\":1621:1695   */\n  swap2\n  pop\n    /* \"#utility.yul\":1576:1705   */\n  pop\n    /* \"#utility.yul\":1205:1712   */\n  swap3\n  pop\n  swap3\n  swap1\n  pop\n  jump\t// out\n    /* \"Campaign.sol\":424:2417  contract Campaign {... */\ntag_6:\n  dataSize(sub_0)\n  dup1\n  dataOffset(sub_0)\n  0x00\n  codecopy\n  0x00\n  return\nstop\n\nsub_0: assembly {\n        /* \"Campaign.sol\":424:2417  contract Campaign {... */\n      mstore(0x40, 0x80)\n      jumpi(tag_1, lt(calldatasize, 0x04))\n      shr(0xe0, calldataload(0x00))\n      dup1\n      0x8a9cfd55\n      gt\n      tag_10\n      jumpi\n      dup1\n      0x8a9cfd55\n      eq\n      tag_6\n      jumpi\n      dup1\n      0x937e09b1\n      eq\n      tag_7\n      jumpi\n      dup1\n      0xd7bb99ba\n      eq\n      tag_8\n      jumpi\n      dup1\n      0xd7d1bbdb\n      eq\n      tag_9\n      jumpi\n      jump(tag_1)\n    tag_10:\n      dup1\n      0x03441006\n      eq\n      tag_2\n      jumpi\n      dup1\n      0x0a144391\n      eq\n      tag_3\n      jumpi\n      dup1\n      0x481c6a75\n      eq\n      tag_4\n      jumpi\n      dup1\n      0x81d12c58\n      eq\n      tag_5\n      jumpi\n    tag_1:\n      0x00\n      dup1\n      revert\n        /* \"Campaign.sol\":2048:2415  function finalizeRequest(uint index) public restrictedManager {... */\n    tag_2:\n      callvalue\n      dup1\n      iszero\n      tag_11\n      jumpi\n      0x00\n      dup1\n      revert\n    tag_11:\n      pop\n      tag_12\n      0x04\n      dup1\n      calldatasize\n      sub\n      dup2\n      add\n      swap1\n      tag_13\n      swap2\n      swap1\n      tag_14\n      jump\t// in\n    tag_13:\n      tag_15\n      jump\t// in\n    tag_12:\n      stop\n        /* \"Campaign.sol\":744:785  mapping(address => bool) public approvers */\n    tag_3:\n      callvalue\n      dup1\n      iszero\n      tag_16\n      jumpi\n      0x00\n      dup1\n      revert\n    tag_16:\n      pop\n      tag_17\n      0x04\n      dup1\n      calldatasize\n      sub\n      dup2\n      add\n      swap1\n      tag_18\n      swap2\n      swap1\n      tag_19\n      jump\t// in\n    tag_18:\n      tag_20\n      jump\t// in\n    tag_17:\n      mload(0x40)\n      tag_21\n      swap2\n      swap1\n      tag_22\n      jump\t// in\n    tag_21:\n      mload(0x40)\n      dup1\n      swap2\n      sub\n      swap1\n      return\n        /* \"Campaign.sol\":654:676  address public manager */\n    tag_4:\n      callvalue\n      dup1\n      iszero\n      tag_23\n      jumpi\n      0x00\n      dup1\n      revert\n    tag_23:\n      pop\n      tag_24\n      tag_25\n      jump\t// in\n    tag_24:\n      mload(0x40)\n      tag_26\n      swap2\n      swap1\n      tag_27\n      jump\t// in\n    tag_26:\n      mload(0x40)\n      dup1\n      swap2\n      sub\n      swap1\n      return\n        /* \"Campaign.sol\":814:854  mapping(uint => Request) public requests */\n    tag_5:\n      callvalue\n      dup1\n      iszero\n      tag_28\n      jumpi\n      0x00\n      dup1\n      revert\n    tag_28:\n      pop\n      tag_29\n      0x04\n      dup1\n      calldatasize\n      sub\n      dup2\n      add\n      swap1\n      tag_30\n      swap2\n      swap1\n      tag_14\n      jump\t// in\n    tag_30:\n      tag_31\n      jump\t// in\n    tag_29:\n      mload(0x40)\n      tag_32\n      swap6\n      swap5\n      swap4\n      swap3\n      swap2\n      swap1\n      tag_33\n      jump\t// in\n    tag_32:\n      mload(0x40)\n      dup1\n      swap2\n      sub\n      swap1\n      return\n        /* \"Campaign.sol\":1311:1726  function createRequest(string memory description, uint value, address recipient) ... */\n    tag_6:\n      callvalue\n      dup1\n      iszero\n      tag_34\n      jumpi\n      0x00\n      dup1\n      revert\n    tag_34:\n      pop\n      tag_35\n      0x04\n      dup1\n      calldatasize\n      sub\n      dup2\n      add\n      swap1\n      tag_36\n      swap2\n      swap1\n      tag_37\n      jump\t// in\n    tag_36:\n      tag_38\n      jump\t// in\n    tag_35:\n      stop\n        /* \"Campaign.sol\":682:713  uint public minimumContribution */\n    tag_7:\n      callvalue\n      dup1\n      iszero\n      tag_39\n      jumpi\n      0x00\n      dup1\n      revert\n    tag_39:\n      pop\n      tag_40\n      tag_41\n      jump\t// in\n    tag_40:\n      mload(0x40)\n      tag_42\n      swap2\n      swap1\n      tag_43\n      jump\t// in\n    tag_42:\n      mload(0x40)\n      dup1\n      swap2\n      sub\n      swap1\n      return\n        /* \"Campaign.sol\":1179:1305  function contribute() public payable restrictedMinimum {... */\n    tag_8:\n      tag_44\n      tag_45\n      jump\t// in\n    tag_44:\n      stop\n        /* \"Campaign.sol\":1732:2042  function approveRequest(uint index) public {... */\n    tag_9:\n      callvalue\n      dup1\n      iszero\n      tag_46\n      jumpi\n      0x00\n      dup1\n      revert\n    tag_46:\n      pop\n      tag_47\n      0x04\n      dup1\n      calldatasize\n      sub\n      dup2\n      add\n      swap1\n      tag_48\n      swap2\n      swap1\n      tag_14\n      jump\t// in\n    tag_48:\n      tag_49\n      jump\t// in\n    tag_47:\n      stop\n        /* \"Campaign.sol\":2048:2415  function finalizeRequest(uint index) public restrictedManager {... */\n    tag_15:\n        /* \"Campaign.sol\":1025:1032  manager */\n      0x00\n      dup1\n      sload\n      swap1\n      0x0100\n      exp\n      swap1\n      div\n      0xffffffffffffffffffffffffffffffffffffffff\n      and\n        /* \"Campaign.sol\":1011:1032  msg.sender == manager */\n      0xffffffffffffffffffffffffffffffffffffffff\n      and\n        /* \"Campaign.sol\":1011:1021  msg.sender */\n      caller\n        /* \"Campaign.sol\":1011:1032  msg.sender == manager */\n      0xffffffffffffffffffffffffffffffffffffffff\n      and\n      eq\n        /* \"Campaign.sol\":1003:1033  require(msg.sender == manager) */\n      tag_51\n      jumpi\n      0x00\n      dup1\n      revert\n    tag_51:\n        /* \"Campaign.sol\":2120:2143  Request storage request */\n      0x00\n        /* \"Campaign.sol\":2146:2154  requests */\n      0x05\n        /* \"Campaign.sol\":2146:2161  requests[index] */\n      0x00\n        /* \"Campaign.sol\":2155:2160  index */\n      dup4\n        /* \"Campaign.sol\":2146:2161  requests[index] */\n      dup2\n      mstore\n      0x20\n      add\n      swap1\n      dup2\n      mstore\n      0x20\n      add\n      0x00\n      keccak256\n        /* \"Campaign.sol\":2120:2161  Request storage request = requests[index] */\n      swap1\n      pop\n        /* \"Campaign.sol\":2222:2223  2 */\n      0x02\n        /* \"Campaign.sol\":2205:2219  approversCount */\n      dup1\n      sload\n        /* \"Campaign.sol\":2205:2223  approversCount / 2 */\n      tag_53\n      swap2\n      swap1\n      tag_54\n      jump\t// in\n    tag_53:\n        /* \"Campaign.sol\":2180:2187  request */\n      dup2\n        /* \"Campaign.sol\":2180:2201  request.approvalCount */\n      0x03\n      add\n      sload\n        /* \"Campaign.sol\":2180:2224  request.approvalCount > (approversCount / 2) */\n      gt\n        /* \"Campaign.sol\":2172:2259  require(request.approvalCount > (approversCount / 2), \"Approves must be more than 50%\") */\n      tag_55\n      jumpi\n      mload(0x40)\n      0x08c379a000000000000000000000000000000000000000000000000000000000\n      dup2\n      mstore\n      0x04\n      add\n      tag_56\n      swap1\n      tag_57\n      jump\t// in\n    tag_56:\n      mload(0x40)\n      dup1\n      swap2\n      sub\n      swap1\n      revert\n    tag_55:\n        /* \"Campaign.sol\":2278:2285  request */\n      dup1\n        /* \"Campaign.sol\":2278:2294  request.complete */\n      0x02\n      add\n      0x14\n      swap1\n      sload\n      swap1\n      0x0100\n      exp\n      swap1\n      div\n      0xff\n      and\n        /* \"Campaign.sol\":2277:2294  !request.complete */\n      iszero\n        /* \"Campaign.sol\":2269:2323  require(!request.complete, \"Request already complete\") */\n      tag_58\n      jumpi\n      mload(0x40)\n      0x08c379a000000000000000000000000000000000000000000000000000000000\n      dup2\n      mstore\n      0x04\n      add\n      tag_59\n      swap1\n      tag_60\n      jump\t// in\n    tag_59:\n      mload(0x40)\n      dup1\n      swap2\n      sub\n      swap1\n      revert\n    tag_58:\n        /* \"Campaign.sol\":2334:2341  request */\n      dup1\n        /* \"Campaign.sol\":2334:2351  request.recipient */\n      0x02\n      add\n      0x00\n      swap1\n      sload\n      swap1\n      0x0100\n      exp\n      swap1\n      div\n      0xffffffffffffffffffffffffffffffffffffffff\n      and\n        /* \"Campaign.sol\":2334:2360  request.recipient.transfer */\n      0xffffffffffffffffffffffffffffffffffffffff\n      and\n        /* \"Campaign.sol\":2334:2375  request.recipient.transfer(request.value) */\n      0x08fc\n        /* \"Campaign.sol\":2361:2368  request */\n      dup3\n        /* \"Campaign.sol\":2361:2374  request.value */\n      0x01\n      add\n      sload\n        /* \"Campaign.sol\":2334:2375  request.recipient.transfer(request.value) */\n      swap1\n      dup2\n      iszero\n      mul\n      swap1\n      mload(0x40)\n      0x00\n      mload(0x40)\n      dup1\n      dup4\n      sub\n      dup2\n      dup6\n      dup9\n      dup9\n      call\n      swap4\n      pop\n      pop\n      pop\n      pop\n      iszero\n      dup1\n      iszero\n      tag_62\n      jumpi\n      returndatasize\n      0x00\n      dup1\n      returndatacopy\n      revert(0x00, returndatasize)\n    tag_62:\n      pop\n        /* \"Campaign.sol\":2404:2408  true */\n      0x01\n        /* \"Campaign.sol\":2385:2392  request */\n      dup2\n        /* \"Campaign.sol\":2385:2401  request.complete */\n      0x02\n      add\n      0x14\n        /* \"Campaign.sol\":2385:2408  request.complete = true */\n      0x0100\n      exp\n      dup2\n      sload\n      dup2\n      0xff\n      mul\n      not\n      and\n      swap1\n      dup4\n      iszero\n      iszero\n      mul\n      or\n      swap1\n      sstore\n      pop\n        /* \"Campaign.sol\":2110:2415  {... */\n      pop\n        /* \"Campaign.sol\":2048:2415  function finalizeRequest(uint index) public restrictedManager {... */\n      pop\n      jump\t// out\n        /* \"Campaign.sol\":744:785  mapping(address => bool) public approvers */\n    tag_20:\n      mstore(0x20, 0x03)\n      dup1\n      0x00\n      mstore\n      keccak256(0x00, 0x40)\n      0x00\n      swap2\n      pop\n      sload\n      swap1\n      0x0100\n      exp\n      swap1\n      div\n      0xff\n      and\n      dup2\n      jump\t// out\n        /* \"Campaign.sol\":654:676  address public manager */\n    tag_25:\n      0x00\n      dup1\n      sload\n      swap1\n      0x0100\n      exp\n      swap1\n      div\n      0xffffffffffffffffffffffffffffffffffffffff\n      and\n      dup2\n      jump\t// out\n        /* \"Campaign.sol\":814:854  mapping(uint => Request) public requests */\n    tag_31:\n      mstore(0x20, 0x05)\n      dup1\n      0x00\n      mstore\n      keccak256(0x00, 0x40)\n      0x00\n      swap2\n      pop\n      swap1\n      pop\n      dup1\n      0x00\n      add\n      dup1\n      sload\n      tag_63\n      swap1\n      tag_64\n      jump\t// in\n    tag_63:\n      dup1\n      0x1f\n      add\n      0x20\n      dup1\n      swap2\n      div\n      mul\n      0x20\n      add\n      mload(0x40)\n      swap1\n      dup2\n      add\n      0x40\n      mstore\n      dup1\n      swap3\n      swap2\n      swap1\n      dup2\n      dup2\n      mstore\n      0x20\n      add\n      dup3\n      dup1\n      sload\n      tag_65\n      swap1\n      tag_64\n      jump\t// in\n    tag_65:\n      dup1\n      iszero\n      tag_66\n      jumpi\n      dup1\n      0x1f\n      lt\n      tag_67\n      jumpi\n      0x0100\n      dup1\n      dup4\n      sload\n      div\n      mul\n      dup4\n      mstore\n      swap2\n      0x20\n      add\n      swap2\n      jump(tag_66)\n    tag_67:\n      dup3\n      add\n      swap2\n      swap1\n      0x00\n      mstore\n      keccak256(0x00, 0x20)\n      swap1\n    tag_68:\n      dup2\n      sload\n      dup2\n      mstore\n      swap1\n      0x01\n      add\n      swap1\n      0x20\n      add\n      dup1\n      dup4\n      gt\n      tag_68\n      jumpi\n      dup3\n      swap1\n      sub\n      0x1f\n      and\n      dup3\n      add\n      swap2\n    tag_66:\n      pop\n      pop\n      pop\n      pop\n      pop\n      swap1\n      dup1\n      0x01\n      add\n      sload\n      swap1\n      dup1\n      0x02\n      add\n      0x00\n      swap1\n      sload\n      swap1\n      0x0100\n      exp\n      swap1\n      div\n      0xffffffffffffffffffffffffffffffffffffffff\n      and\n      swap1\n      dup1\n      0x02\n      add\n      0x14\n      swap1\n      sload\n      swap1\n      0x0100\n      exp\n      swap1\n      div\n      0xff\n      and\n      swap1\n      dup1\n      0x03\n      add\n      sload\n      swap1\n      pop\n      dup6\n      jump\t// out\n        /* \"Campaign.sol\":1311:1726  function createRequest(string memory description, uint value, address recipient) ... */\n    tag_38:\n        /* \"Campaign.sol\":1025:1032  manager */\n      0x00\n      dup1\n      sload\n      swap1\n      0x0100\n      exp\n      swap1\n      div\n      0xffffffffffffffffffffffffffffffffffffffff\n      and\n        /* \"Campaign.sol\":1011:1032  msg.sender == manager */\n      0xffffffffffffffffffffffffffffffffffffffff\n      and\n        /* \"Campaign.sol\":1011:1021  msg.sender */\n      caller\n        /* \"Campaign.sol\":1011:1032  msg.sender == manager */\n      0xffffffffffffffffffffffffffffffffffffffff\n      and\n      eq\n        /* \"Campaign.sol\":1003:1033  require(msg.sender == manager) */\n      tag_70\n      jumpi\n      0x00\n      dup1\n      revert\n    tag_70:\n        /* \"Campaign.sol\":1440:1466  Request storage newRequest */\n      0x00\n        /* \"Campaign.sol\":1469:1477  requests */\n      0x05\n        /* \"Campaign.sol\":1469:1493  requests[requestCount++] */\n      0x00\n        /* \"Campaign.sol\":1478:1490  requestCount */\n      0x04\n      0x00\n        /* \"Campaign.sol\":1478:1492  requestCount++ */\n      dup2\n      sload\n      dup1\n      swap3\n      swap2\n      swap1\n      tag_72\n      swap1\n      tag_73\n      jump\t// in\n    tag_72:\n      swap2\n      swap1\n      pop\n      sstore\n        /* \"Campaign.sol\":1469:1493  requests[requestCount++] */\n      dup2\n      mstore\n      0x20\n      add\n      swap1\n      dup2\n      mstore\n      0x20\n      add\n      0x00\n      keccak256\n        /* \"Campaign.sol\":1440:1493  Request storage newRequest = requests[requestCount++] */\n      swap1\n      pop\n        /* \"Campaign.sol\":1532:1543  description */\n      dup4\n        /* \"Campaign.sol\":1507:1517  newRequest */\n      dup2\n        /* \"Campaign.sol\":1507:1529  newRequest.description */\n      0x00\n      add\n        /* \"Campaign.sol\":1507:1543  newRequest.description = description */\n      swap1\n      dup1\n      mload\n      swap1\n      0x20\n      add\n      swap1\n      tag_74\n      swap3\n      swap2\n      swap1\n      tag_75\n      jump\t// in\n    tag_74:\n      pop\n        /* \"Campaign.sol\":1576:1581  value */\n      dup3\n        /* \"Campaign.sol\":1557:1567  newRequest */\n      dup2\n        /* \"Campaign.sol\":1557:1573  newRequest.value */\n      0x01\n      add\n        /* \"Campaign.sol\":1557:1581  newRequest.value = value */\n      dup2\n      swap1\n      sstore\n      pop\n        /* \"Campaign.sol\":1626:1635  recipient */\n      dup2\n        /* \"Campaign.sol\":1595:1605  newRequest */\n      dup2\n        /* \"Campaign.sol\":1595:1615  newRequest.recipient */\n      0x02\n      add\n      0x00\n        /* \"Campaign.sol\":1595:1636  newRequest.recipient = payable(recipient) */\n      0x0100\n      exp\n      dup2\n      sload\n      dup2\n      0xffffffffffffffffffffffffffffffffffffffff\n      mul\n      not\n      and\n      swap1\n      dup4\n      0xffffffffffffffffffffffffffffffffffffffff\n      and\n      mul\n      or\n      swap1\n      sstore\n      pop\n        /* \"Campaign.sol\":1672:1677  false */\n      0x00\n        /* \"Campaign.sol\":1650:1660  newRequest */\n      dup2\n        /* \"Campaign.sol\":1650:1669  newRequest.complete */\n      0x02\n      add\n      0x14\n        /* \"Campaign.sol\":1650:1677  newRequest.complete = false */\n      0x0100\n      exp\n      dup2\n      sload\n      dup2\n      0xff\n      mul\n      not\n      and\n      swap1\n      dup4\n      iszero\n      iszero\n      mul\n      or\n      swap1\n      sstore\n      pop\n        /* \"Campaign.sol\":1718:1719  0 */\n      0x00\n        /* \"Campaign.sol\":1691:1701  newRequest */\n      dup2\n        /* \"Campaign.sol\":1691:1715  newRequest.approvalCount */\n      0x03\n      add\n        /* \"Campaign.sol\":1691:1719  newRequest.approvalCount = 0 */\n      dup2\n      swap1\n      sstore\n      pop\n        /* \"Campaign.sol\":1426:1726  {... */\n      pop\n        /* \"Campaign.sol\":1311:1726  function createRequest(string memory description, uint value, address recipient) ... */\n      pop\n      pop\n      pop\n      jump\t// out\n        /* \"Campaign.sol\":682:713  uint public minimumContribution */\n    tag_41:\n      sload(0x01)\n      dup2\n      jump\t// out\n        /* \"Campaign.sol\":1179:1305  function contribute() public payable restrictedMinimum {... */\n    tag_45:\n        /* \"Campaign.sol\":920:939  minimumContribution */\n      sload(0x01)\n        /* \"Campaign.sol\":908:917  msg.value */\n      callvalue\n        /* \"Campaign.sol\":908:939  msg.value > minimumContribution */\n      gt\n        /* \"Campaign.sol\":900:940  require(msg.value > minimumContribution) */\n      tag_77\n      jumpi\n      0x00\n      dup1\n      revert\n    tag_77:\n        /* \"Campaign.sol\":1268:1272  true */\n      0x01\n        /* \"Campaign.sol\":1244:1253  approvers */\n      0x03\n        /* \"Campaign.sol\":1244:1265  approvers[msg.sender] */\n      0x00\n        /* \"Campaign.sol\":1254:1264  msg.sender */\n      caller\n        /* \"Campaign.sol\":1244:1265  approvers[msg.sender] */\n      0xffffffffffffffffffffffffffffffffffffffff\n      and\n      0xffffffffffffffffffffffffffffffffffffffff\n      and\n      dup2\n      mstore\n      0x20\n      add\n      swap1\n      dup2\n      mstore\n      0x20\n      add\n      0x00\n      keccak256\n      0x00\n        /* \"Campaign.sol\":1244:1272  approvers[msg.sender] = true */\n      0x0100\n      exp\n      dup2\n      sload\n      dup2\n      0xff\n      mul\n      not\n      and\n      swap1\n      dup4\n      iszero\n      iszero\n      mul\n      or\n      swap1\n      sstore\n      pop\n        /* \"Campaign.sol\":1282:1296  approversCount */\n      0x02\n      0x00\n        /* \"Campaign.sol\":1282:1298  approversCount++ */\n      dup2\n      sload\n      dup1\n      swap3\n      swap2\n      swap1\n      tag_79\n      swap1\n      tag_73\n      jump\t// in\n    tag_79:\n      swap2\n      swap1\n      pop\n      sstore\n      pop\n        /* \"Campaign.sol\":1179:1305  function contribute() public payable restrictedMinimum {... */\n      jump\t// out\n        /* \"Campaign.sol\":1732:2042  function approveRequest(uint index) public {... */\n    tag_49:\n        /* \"Campaign.sol\":1785:1808  Request storage request */\n      0x00\n        /* \"Campaign.sol\":1811:1819  requests */\n      0x05\n        /* \"Campaign.sol\":1811:1826  requests[index] */\n      0x00\n        /* \"Campaign.sol\":1820:1825  index */\n      dup4\n        /* \"Campaign.sol\":1811:1826  requests[index] */\n      dup2\n      mstore\n      0x20\n      add\n      swap1\n      dup2\n      mstore\n      0x20\n      add\n      0x00\n      keccak256\n        /* \"Campaign.sol\":1785:1826  Request storage request = requests[index] */\n      swap1\n      pop\n        /* \"Campaign.sol\":1845:1854  approvers */\n      0x03\n        /* \"Campaign.sol\":1845:1866  approvers[msg.sender] */\n      0x00\n        /* \"Campaign.sol\":1855:1865  msg.sender */\n      caller\n        /* \"Campaign.sol\":1845:1866  approvers[msg.sender] */\n      0xffffffffffffffffffffffffffffffffffffffff\n      and\n      0xffffffffffffffffffffffffffffffffffffffff\n      and\n      dup2\n      mstore\n      0x20\n      add\n      swap1\n      dup2\n      mstore\n      0x20\n      add\n      0x00\n      keccak256\n      0x00\n      swap1\n      sload\n      swap1\n      0x0100\n      exp\n      swap1\n      div\n      0xff\n      and\n        /* \"Campaign.sol\":1837:1886  require(approvers[msg.sender], \"Not an approver\") */\n      tag_81\n      jumpi\n      mload(0x40)\n      0x08c379a000000000000000000000000000000000000000000000000000000000\n      dup2\n      mstore\n      0x04\n      add\n      tag_82\n      swap1\n      tag_83\n      jump\t// in\n    tag_82:\n      mload(0x40)\n      dup1\n      swap2\n      sub\n      swap1\n      revert\n    tag_81:\n        /* \"Campaign.sol\":1905:1912  request */\n      dup1\n        /* \"Campaign.sol\":1905:1922  request.approvals */\n      0x04\n      add\n        /* \"Campaign.sol\":1905:1934  request.approvals[msg.sender] */\n      0x00\n        /* \"Campaign.sol\":1923:1933  msg.sender */\n      caller\n        /* \"Campaign.sol\":1905:1934  request.approvals[msg.sender] */\n      0xffffffffffffffffffffffffffffffffffffffff\n      and\n      0xffffffffffffffffffffffffffffffffffffffff\n      and\n      dup2\n      mstore\n      0x20\n      add\n      swap1\n      dup2\n      mstore\n      0x20\n      add\n      0x00\n      keccak256\n      0x00\n      swap1\n      sload\n      swap1\n      0x0100\n      exp\n      swap1\n      div\n      0xff\n      and\n        /* \"Campaign.sol\":1904:1934  !request.approvals[msg.sender] */\n      iszero\n        /* \"Campaign.sol\":1896:1955  require(!request.approvals[msg.sender], \"Already approved\") */\n      tag_84\n      jumpi\n      mload(0x40)\n      0x08c379a000000000000000000000000000000000000000000000000000000000\n      dup2\n      mstore\n      0x04\n      add\n      tag_85\n      swap1\n      tag_86\n      jump\t// in\n    tag_85:\n      mload(0x40)\n      dup1\n      swap2\n      sub\n      swap1\n      revert\n    tag_84:\n        /* \"Campaign.sol\":1998:2002  true */\n      0x01\n        /* \"Campaign.sol\":1966:1973  request */\n      dup2\n        /* \"Campaign.sol\":1966:1983  request.approvals */\n      0x04\n      add\n        /* \"Campaign.sol\":1966:1995  request.approvals[msg.sender] */\n      0x00\n        /* \"Campaign.sol\":1984:1994  msg.sender */\n      caller\n        /* \"Campaign.sol\":1966:1995  request.approvals[msg.sender] */\n      0xffffffffffffffffffffffffffffffffffffffff\n      and\n      0xffffffffffffffffffffffffffffffffffffffff\n      and\n      dup2\n      mstore\n      0x20\n      add\n      swap1\n      dup2\n      mstore\n      0x20\n      add\n      0x00\n      keccak256\n      0x00\n        /* \"Campaign.sol\":1966:2002  request.approvals[msg.sender] = true */\n      0x0100\n      exp\n      dup2\n      sload\n      dup2\n      0xff\n      mul\n      not\n      and\n      swap1\n      dup4\n      iszero\n      iszero\n      mul\n      or\n      swap1\n      sstore\n      pop\n        /* \"Campaign.sol\":2012:2019  request */\n      dup1\n        /* \"Campaign.sol\":2012:2033  request.approvalCount */\n      0x03\n      add\n      0x00\n        /* \"Campaign.sol\":2012:2035  request.approvalCount++ */\n      dup2\n      sload\n      dup1\n      swap3\n      swap2\n      swap1\n      tag_87\n      swap1\n      tag_73\n      jump\t// in\n    tag_87:\n      swap2\n      swap1\n      pop\n      sstore\n      pop\n        /* \"Campaign.sol\":1775:2042  {... */\n      pop\n        /* \"Campaign.sol\":1732:2042  function approveRequest(uint index) public {... */\n      pop\n      jump\t// out\n    tag_75:\n      dup3\n      dup1\n      sload\n      tag_88\n      swap1\n      tag_64\n      jump\t// in\n    tag_88:\n      swap1\n      0x00\n      mstore\n      keccak256(0x00, 0x20)\n      swap1\n      0x1f\n      add\n      0x20\n      swap1\n      div\n      dup2\n      add\n      swap3\n      dup3\n      tag_90\n      jumpi\n      0x00\n      dup6\n      sstore\n      jump(tag_89)\n    tag_90:\n      dup3\n      0x1f\n      lt\n      tag_91\n      jumpi\n      dup1\n      mload\n      not(0xff)\n      and\n      dup4\n      dup1\n      add\n      or\n      dup6\n      sstore\n      jump(tag_89)\n    tag_91:\n      dup3\n      dup1\n      add\n      0x01\n      add\n      dup6\n      sstore\n      dup3\n      iszero\n      tag_89\n      jumpi\n      swap2\n      dup3\n      add\n    tag_92:\n      dup3\n      dup2\n      gt\n      iszero\n      tag_93\n      jumpi\n      dup3\n      mload\n      dup3\n      sstore\n      swap2\n      0x20\n      add\n      swap2\n      swap1\n      0x01\n      add\n      swap1\n      jump(tag_92)\n    tag_93:\n    tag_89:\n      pop\n      swap1\n      pop\n      tag_94\n      swap2\n      swap1\n      tag_95\n      jump\t// in\n    tag_94:\n      pop\n      swap1\n      jump\t// out\n    tag_95:\n    tag_96:\n      dup1\n      dup3\n      gt\n      iszero\n      tag_97\n      jumpi\n      0x00\n      dup2\n      0x00\n      swap1\n      sstore\n      pop\n      0x01\n      add\n      jump(tag_96)\n    tag_97:\n      pop\n      swap1\n      jump\t// out\n        /* \"#utility.yul\":7:82   */\n    tag_98:\n        /* \"#utility.yul\":40:46   */\n      0x00\n        /* \"#utility.yul\":73:75   */\n      0x40\n        /* \"#utility.yul\":67:76   */\n      mload\n        /* \"#utility.yul\":57:76   */\n      swap1\n      pop\n        /* \"#utility.yul\":7:82   */\n      swap1\n      jump\t// out\n        /* \"#utility.yul\":88:205   */\n    tag_99:\n        /* \"#utility.yul\":197:198   */\n      0x00\n        /* \"#utility.yul\":194:195   */\n      dup1\n        /* \"#utility.yul\":187:199   */\n      revert\n        /* \"#utility.yul\":211:328   */\n    tag_100:\n        /* \"#utility.yul\":320:321   */\n      0x00\n        /* \"#utility.yul\":317:318   */\n      dup1\n        /* \"#utility.yul\":310:322   */\n      revert\n        /* \"#utility.yul\":334:411   */\n    tag_101:\n        /* \"#utility.yul\":371:378   */\n      0x00\n        /* \"#utility.yul\":400:405   */\n      dup2\n        /* \"#utility.yul\":389:405   */\n      swap1\n      pop\n        /* \"#utility.yul\":334:411   */\n      swap2\n      swap1\n      pop\n      jump\t// out\n        /* \"#utility.yul\":417:539   */\n    tag_102:\n        /* \"#utility.yul\":490:514   */\n      tag_145\n        /* \"#utility.yul\":508:513   */\n      dup2\n        /* \"#utility.yul\":490:514   */\n      tag_101\n      jump\t// in\n    tag_145:\n        /* \"#utility.yul\":483:488   */\n      dup2\n        /* \"#utility.yul\":480:515   */\n      eq\n        /* \"#utility.yul\":470:533   */\n      tag_146\n      jumpi\n        /* \"#utility.yul\":529:530   */\n      0x00\n        /* \"#utility.yul\":526:527   */\n      dup1\n        /* \"#utility.yul\":519:531   */\n      revert\n        /* \"#utility.yul\":470:533   */\n    tag_146:\n        /* \"#utility.yul\":417:539   */\n      pop\n      jump\t// out\n        /* \"#utility.yul\":545:684   */\n    tag_103:\n        /* \"#utility.yul\":591:596   */\n      0x00\n        /* \"#utility.yul\":629:635   */\n      dup2\n        /* \"#utility.yul\":616:636   */\n      calldataload\n        /* \"#utility.yul\":607:636   */\n      swap1\n      pop\n        /* \"#utility.yul\":645:678   */\n      tag_148\n        /* \"#utility.yul\":672:677   */\n      dup2\n        /* \"#utility.yul\":645:678   */\n      tag_102\n      jump\t// in\n    tag_148:\n        /* \"#utility.yul\":545:684   */\n      swap3\n      swap2\n      pop\n      pop\n      jump\t// out\n        /* \"#utility.yul\":690:1019   */\n    tag_14:\n        /* \"#utility.yul\":749:755   */\n      0x00\n        /* \"#utility.yul\":798:800   */\n      0x20\n        /* \"#utility.yul\":786:795   */\n      dup3\n        /* \"#utility.yul\":777:784   */\n      dup5\n        /* \"#utility.yul\":773:796   */\n      sub\n        /* \"#utility.yul\":769:801   */\n      slt\n        /* \"#utility.yul\":766:885   */\n      iszero\n      tag_150\n      jumpi\n        /* \"#utility.yul\":804:883   */\n      tag_151\n      tag_99\n      jump\t// in\n    tag_151:\n        /* \"#utility.yul\":766:885   */\n    tag_150:\n        /* \"#utility.yul\":924:925   */\n      0x00\n        /* \"#utility.yul\":949:1002   */\n      tag_152\n        /* \"#utility.yul\":994:1001   */\n      dup5\n        /* \"#utility.yul\":985:991   */\n      dup3\n        /* \"#utility.yul\":974:983   */\n      dup6\n        /* \"#utility.yul\":970:992   */\n      add\n        /* \"#utility.yul\":949:1002   */\n      tag_103\n      jump\t// in\n    tag_152:\n        /* \"#utility.yul\":939:1002   */\n      swap2\n      pop\n        /* \"#utility.yul\":895:1012   */\n      pop\n        /* \"#utility.yul\":690:1019   */\n      swap3\n      swap2\n      pop\n      pop\n      jump\t// out\n        /* \"#utility.yul\":1025:1151   */\n    tag_104:\n        /* \"#utility.yul\":1062:1069   */\n      0x00\n        /* \"#utility.yul\":1102:1144   */\n      0xffffffffffffffffffffffffffffffffffffffff\n        /* \"#utility.yul\":1095:1100   */\n      dup3\n        /* \"#utility.yul\":1091:1145   */\n      and\n        /* \"#utility.yul\":1080:1145   */\n      swap1\n      pop\n        /* \"#utility.yul\":1025:1151   */\n      swap2\n      swap1\n      pop\n      jump\t// out\n        /* \"#utility.yul\":1157:1253   */\n    tag_105:\n        /* \"#utility.yul\":1194:1201   */\n      0x00\n        /* \"#utility.yul\":1223:1247   */\n      tag_155\n        /* \"#utility.yul\":1241:1246   */\n      dup3\n        /* \"#utility.yul\":1223:1247   */\n      tag_104\n      jump\t// in\n    tag_155:\n        /* \"#utility.yul\":1212:1247   */\n      swap1\n      pop\n        /* \"#utility.yul\":1157:1253   */\n      swap2\n      swap1\n      pop\n      jump\t// out\n        /* \"#utility.yul\":1259:1381   */\n    tag_106:\n        /* \"#utility.yul\":1332:1356   */\n      tag_157\n        /* \"#utility.yul\":1350:1355   */\n      dup2\n        /* \"#utility.yul\":1332:1356   */\n      tag_105\n      jump\t// in\n    tag_157:\n        /* \"#utility.yul\":1325:1330   */\n      dup2\n        /* \"#utility.yul\":1322:1357   */\n      eq\n        /* \"#utility.yul\":1312:1375   */\n      tag_158\n      jumpi\n        /* \"#utility.yul\":1371:1372   */\n      0x00\n        /* \"#utility.yul\":1368:1369   */\n      dup1\n        /* \"#utility.yul\":1361:1373   */\n      revert\n        /* \"#utility.yul\":1312:1375   */\n    tag_158:\n        /* \"#utility.yul\":1259:1381   */\n      pop\n      jump\t// out\n        /* \"#utility.yul\":1387:1526   */\n    tag_107:\n        /* \"#utility.yul\":1433:1438   */\n      0x00\n        /* \"#utility.yul\":1471:1477   */\n      dup2\n        /* \"#utility.yul\":1458:1478   */\n      calldataload\n        /* \"#utility.yul\":1449:1478   */\n      swap1\n      pop\n        /* \"#utility.yul\":1487:1520   */\n      tag_160\n        /* \"#utility.yul\":1514:1519   */\n      dup2\n        /* \"#utility.yul\":1487:1520   */\n      tag_106\n      jump\t// in\n    tag_160:\n        /* \"#utility.yul\":1387:1526   */\n      swap3\n      swap2\n      pop\n      pop\n      jump\t// out\n        /* \"#utility.yul\":1532:1861   */\n    tag_19:\n        /* \"#utility.yul\":1591:1597   */\n      0x00\n        /* \"#utility.yul\":1640:1642   */\n      0x20\n        /* \"#utility.yul\":1628:1637   */\n      dup3\n        /* \"#utility.yul\":1619:1626   */\n      dup5\n        /* \"#utility.yul\":1615:1638   */\n      sub\n        /* \"#utility.yul\":1611:1643   */\n      slt\n        /* \"#utility.yul\":1608:1727   */\n      iszero\n      tag_162\n      jumpi\n        /* \"#utility.yul\":1646:1725   */\n      tag_163\n      tag_99\n      jump\t// in\n    tag_163:\n        /* \"#utility.yul\":1608:1727   */\n    tag_162:\n        /* \"#utility.yul\":1766:1767   */\n      0x00\n        /* \"#utility.yul\":1791:1844   */\n      tag_164\n        /* \"#utility.yul\":1836:1843   */\n      dup5\n        /* \"#utility.yul\":1827:1833   */\n      dup3\n        /* \"#utility.yul\":1816:1825   */\n      dup6\n        /* \"#utility.yul\":1812:1834   */\n      add\n        /* \"#utility.yul\":1791:1844   */\n      tag_107\n      jump\t// in\n    tag_164:\n        /* \"#utility.yul\":1781:1844   */\n      swap2\n      pop\n        /* \"#utility.yul\":1737:1854   */\n      pop\n        /* \"#utility.yul\":1532:1861   */\n      swap3\n      swap2\n      pop\n      pop\n      jump\t// out\n        /* \"#utility.yul\":1867:1957   */\n    tag_108:\n        /* \"#utility.yul\":1901:1908   */\n      0x00\n        /* \"#utility.yul\":1944:1949   */\n      dup2\n        /* \"#utility.yul\":1937:1950   */\n      iszero\n        /* \"#utility.yul\":1930:1951   */\n      iszero\n        /* \"#utility.yul\":1919:1951   */\n      swap1\n      pop\n        /* \"#utility.yul\":1867:1957   */\n      swap2\n      swap1\n      pop\n      jump\t// out\n        /* \"#utility.yul\":1963:2072   */\n    tag_109:\n        /* \"#utility.yul\":2044:2065   */\n      tag_167\n        /* \"#utility.yul\":2059:2064   */\n      dup2\n        /* \"#utility.yul\":2044:2065   */\n      tag_108\n      jump\t// in\n    tag_167:\n        /* \"#utility.yul\":2039:2042   */\n      dup3\n        /* \"#utility.yul\":2032:2066   */\n      mstore\n        /* \"#utility.yul\":1963:2072   */\n      pop\n      pop\n      jump\t// out\n        /* \"#utility.yul\":2078:2288   */\n    tag_22:\n        /* \"#utility.yul\":2165:2169   */\n      0x00\n        /* \"#utility.yul\":2203:2205   */\n      0x20\n        /* \"#utility.yul\":2192:2201   */\n      dup3\n        /* \"#utility.yul\":2188:2206   */\n      add\n        /* \"#utility.yul\":2180:2206   */\n      swap1\n      pop\n        /* \"#utility.yul\":2216:2281   */\n      tag_169\n        /* \"#utility.yul\":2278:2279   */\n      0x00\n        /* \"#utility.yul\":2267:2276   */\n      dup4\n        /* \"#utility.yul\":2263:2280   */\n      add\n        /* \"#utility.yul\":2254:2260   */\n      dup5\n        /* \"#utility.yul\":2216:2281   */\n      tag_109\n      jump\t// in\n    tag_169:\n        /* \"#utility.yul\":2078:2288   */\n      swap3\n      swap2\n      pop\n      pop\n      jump\t// out\n        /* \"#utility.yul\":2294:2412   */\n    tag_110:\n        /* \"#utility.yul\":2381:2405   */\n      tag_171\n        /* \"#utility.yul\":2399:2404   */\n      dup2\n        /* \"#utility.yul\":2381:2405   */\n      tag_105\n      jump\t// in\n    tag_171:\n        /* \"#utility.yul\":2376:2379   */\n      dup3\n        /* \"#utility.yul\":2369:2406   */\n      mstore\n        /* \"#utility.yul\":2294:2412   */\n      pop\n      pop\n      jump\t// out\n        /* \"#utility.yul\":2418:2640   */\n    tag_27:\n        /* \"#utility.yul\":2511:2515   */\n      0x00\n        /* \"#utility.yul\":2549:2551   */\n      0x20\n        /* \"#utility.yul\":2538:2547   */\n      dup3\n        /* \"#utility.yul\":2534:2552   */\n      add\n        /* \"#utility.yul\":2526:2552   */\n      swap1\n      pop\n        /* \"#utility.yul\":2562:2633   */\n      tag_173\n        /* \"#utility.yul\":2630:2631   */\n      0x00\n        /* \"#utility.yul\":2619:2628   */\n      dup4\n        /* \"#utility.yul\":2615:2632   */\n      add\n        /* \"#utility.yul\":2606:2612   */\n      dup5\n        /* \"#utility.yul\":2562:2633   */\n      tag_110\n      jump\t// in\n    tag_173:\n        /* \"#utility.yul\":2418:2640   */\n      swap3\n      swap2\n      pop\n      pop\n      jump\t// out\n        /* \"#utility.yul\":2646:2745   */\n    tag_111:\n        /* \"#utility.yul\":2698:2704   */\n      0x00\n        /* \"#utility.yul\":2732:2737   */\n      dup2\n        /* \"#utility.yul\":2726:2738   */\n      mload\n        /* \"#utility.yul\":2716:2738   */\n      swap1\n      pop\n        /* \"#utility.yul\":2646:2745   */\n      swap2\n      swap1\n      pop\n      jump\t// out\n        /* \"#utility.yul\":2751:2920   */\n    tag_112:\n        /* \"#utility.yul\":2835:2846   */\n      0x00\n        /* \"#utility.yul\":2869:2875   */\n      dup3\n        /* \"#utility.yul\":2864:2867   */\n      dup3\n        /* \"#utility.yul\":2857:2876   */\n      mstore\n        /* \"#utility.yul\":2909:2913   */\n      0x20\n        /* \"#utility.yul\":2904:2907   */\n      dup3\n        /* \"#utility.yul\":2900:2914   */\n      add\n        /* \"#utility.yul\":2885:2914   */\n      swap1\n      pop\n        /* \"#utility.yul\":2751:2920   */\n      swap3\n      swap2\n      pop\n      pop\n      jump\t// out\n        /* \"#utility.yul\":2926:3233   */\n    tag_113:\n        /* \"#utility.yul\":2994:2995   */\n      0x00\n        /* \"#utility.yul\":3004:3117   */\n    tag_177:\n        /* \"#utility.yul\":3018:3024   */\n      dup4\n        /* \"#utility.yul\":3015:3016   */\n      dup2\n        /* \"#utility.yul\":3012:3025   */\n      lt\n        /* \"#utility.yul\":3004:3117   */\n      iszero\n      tag_179\n      jumpi\n        /* \"#utility.yul\":3103:3104   */\n      dup1\n        /* \"#utility.yul\":3098:3101   */\n      dup3\n        /* \"#utility.yul\":3094:3105   */\n      add\n        /* \"#utility.yul\":3088:3106   */\n      mload\n        /* \"#utility.yul\":3084:3085   */\n      dup2\n        /* \"#utility.yul\":3079:3082   */\n      dup5\n        /* \"#utility.yul\":3075:3086   */\n      add\n        /* \"#utility.yul\":3068:3107   */\n      mstore\n        /* \"#utility.yul\":3040:3042   */\n      0x20\n        /* \"#utility.yul\":3037:3038   */\n      dup2\n        /* \"#utility.yul\":3033:3043   */\n      add\n        /* \"#utility.yul\":3028:3043   */\n      swap1\n      pop\n        /* \"#utility.yul\":3004:3117   */\n      jump(tag_177)\n    tag_179:\n        /* \"#utility.yul\":3135:3141   */\n      dup4\n        /* \"#utility.yul\":3132:3133   */\n      dup2\n        /* \"#utility.yul\":3129:3142   */\n      gt\n        /* \"#utility.yul\":3126:3227   */\n      iszero\n      tag_180\n      jumpi\n        /* \"#utility.yul\":3215:3216   */\n      0x00\n        /* \"#utility.yul\":3206:3212   */\n      dup5\n        /* \"#utility.yul\":3201:3204   */\n      dup5\n        /* \"#utility.yul\":3197:3213   */\n      add\n        /* \"#utility.yul\":3190:3217   */\n      mstore\n        /* \"#utility.yul\":3126:3227   */\n    tag_180:\n        /* \"#utility.yul\":2975:3233   */\n      pop\n        /* \"#utility.yul\":2926:3233   */\n      pop\n      pop\n      pop\n      jump\t// out\n        /* \"#utility.yul\":3239:3341   */\n    tag_114:\n        /* \"#utility.yul\":3280:3286   */\n      0x00\n        /* \"#utility.yul\":3331:3333   */\n      0x1f\n        /* \"#utility.yul\":3327:3334   */\n      not\n        /* \"#utility.yul\":3322:3324   */\n      0x1f\n        /* \"#utility.yul\":3315:3320   */\n      dup4\n        /* \"#utility.yul\":3311:3325   */\n      add\n        /* \"#utility.yul\":3307:3335   */\n      and\n        /* \"#utility.yul\":3297:3335   */\n      swap1\n      pop\n        /* \"#utility.yul\":3239:3341   */\n      swap2\n      swap1\n      pop\n      jump\t// out\n        /* \"#utility.yul\":3347:3711   */\n    tag_115:\n        /* \"#utility.yul\":3435:3438   */\n      0x00\n        /* \"#utility.yul\":3463:3502   */\n      tag_183\n        /* \"#utility.yul\":3496:3501   */\n      dup3\n        /* \"#utility.yul\":3463:3502   */\n      tag_111\n      jump\t// in\n    tag_183:\n        /* \"#utility.yul\":3518:3589   */\n      tag_184\n        /* \"#utility.yul\":3582:3588   */\n      dup2\n        /* \"#utility.yul\":3577:3580   */\n      dup6\n        /* \"#utility.yul\":3518:3589   */\n      tag_112\n      jump\t// in\n    tag_184:\n        /* \"#utility.yul\":3511:3589   */\n      swap4\n      pop\n        /* \"#utility.yul\":3598:3650   */\n      tag_185\n        /* \"#utility.yul\":3643:3649   */\n      dup2\n        /* \"#utility.yul\":3638:3641   */\n      dup6\n        /* \"#utility.yul\":3631:3635   */\n      0x20\n        /* \"#utility.yul\":3624:3629   */\n      dup7\n        /* \"#utility.yul\":3620:3636   */\n      add\n        /* \"#utility.yul\":3598:3650   */\n      tag_113\n      jump\t// in\n    tag_185:\n        /* \"#utility.yul\":3675:3704   */\n      tag_186\n        /* \"#utility.yul\":3697:3703   */\n      dup2\n        /* \"#utility.yul\":3675:3704   */\n      tag_114\n      jump\t// in\n    tag_186:\n        /* \"#utility.yul\":3670:3673   */\n      dup5\n        /* \"#utility.yul\":3666:3705   */\n      add\n        /* \"#utility.yul\":3659:3705   */\n      swap2\n      pop\n        /* \"#utility.yul\":3439:3711   */\n      pop\n        /* \"#utility.yul\":3347:3711   */\n      swap3\n      swap2\n      pop\n      pop\n      jump\t// out\n        /* \"#utility.yul\":3717:3835   */\n    tag_116:\n        /* \"#utility.yul\":3804:3828   */\n      tag_188\n        /* \"#utility.yul\":3822:3827   */\n      dup2\n        /* \"#utility.yul\":3804:3828   */\n      tag_101\n      jump\t// in\n    tag_188:\n        /* \"#utility.yul\":3799:3802   */\n      dup3\n        /* \"#utility.yul\":3792:3829   */\n      mstore\n        /* \"#utility.yul\":3717:3835   */\n      pop\n      pop\n      jump\t// out\n        /* \"#utility.yul\":3841:3945   */\n    tag_117:\n        /* \"#utility.yul\":3886:3893   */\n      0x00\n        /* \"#utility.yul\":3915:3939   */\n      tag_190\n        /* \"#utility.yul\":3933:3938   */\n      dup3\n        /* \"#utility.yul\":3915:3939   */\n      tag_104\n      jump\t// in\n    tag_190:\n        /* \"#utility.yul\":3904:3939   */\n      swap1\n      pop\n        /* \"#utility.yul\":3841:3945   */\n      swap2\n      swap1\n      pop\n      jump\t// out\n        /* \"#utility.yul\":3951:4093   */\n    tag_118:\n        /* \"#utility.yul\":4054:4086   */\n      tag_192\n        /* \"#utility.yul\":4080:4085   */\n      dup2\n        /* \"#utility.yul\":4054:4086   */\n      tag_117\n      jump\t// in\n    tag_192:\n        /* \"#utility.yul\":4049:4052   */\n      dup3\n        /* \"#utility.yul\":4042:4087   */\n      mstore\n        /* \"#utility.yul\":3951:4093   */\n      pop\n      pop\n      jump\t// out\n        /* \"#utility.yul\":4099:4874   */\n    tag_33:\n        /* \"#utility.yul\":4334:4338   */\n      0x00\n        /* \"#utility.yul\":4372:4375   */\n      0xa0\n        /* \"#utility.yul\":4361:4370   */\n      dup3\n        /* \"#utility.yul\":4357:4376   */\n      add\n        /* \"#utility.yul\":4349:4376   */\n      swap1\n      pop\n        /* \"#utility.yul\":4422:4431   */\n      dup2\n        /* \"#utility.yul\":4416:4420   */\n      dup2\n        /* \"#utility.yul\":4412:4432   */\n      sub\n        /* \"#utility.yul\":4408:4409   */\n      0x00\n        /* \"#utility.yul\":4397:4406   */\n      dup4\n        /* \"#utility.yul\":4393:4410   */\n      add\n        /* \"#utility.yul\":4386:4433   */\n      mstore\n        /* \"#utility.yul\":4450:4528   */\n      tag_194\n        /* \"#utility.yul\":4523:4527   */\n      dup2\n        /* \"#utility.yul\":4514:4520   */\n      dup9\n        /* \"#utility.yul\":4450:4528   */\n      tag_115\n      jump\t// in\n    tag_194:\n        /* \"#utility.yul\":4442:4528   */\n      swap1\n      pop\n        /* \"#utility.yul\":4538:4610   */\n      tag_195\n        /* \"#utility.yul\":4606:4608   */\n      0x20\n        /* \"#utility.yul\":4595:4604   */\n      dup4\n        /* \"#utility.yul\":4591:4609   */\n      add\n        /* \"#utility.yul\":4582:4588   */\n      dup8\n        /* \"#utility.yul\":4538:4610   */\n      tag_116\n      jump\t// in\n    tag_195:\n        /* \"#utility.yul\":4620:4708   */\n      tag_196\n        /* \"#utility.yul\":4704:4706   */\n      0x40\n        /* \"#utility.yul\":4693:4702   */\n      dup4\n        /* \"#utility.yul\":4689:4707   */\n      add\n        /* \"#utility.yul\":4680:4686   */\n      dup7\n        /* \"#utility.yul\":4620:4708   */\n      tag_118\n      jump\t// in\n    tag_196:\n        /* \"#utility.yul\":4718:4784   */\n      tag_197\n        /* \"#utility.yul\":4780:4782   */\n      0x60\n        /* \"#utility.yul\":4769:4778   */\n      dup4\n        /* \"#utility.yul\":4765:4783   */\n      add\n        /* \"#utility.yul\":4756:4762   */\n      dup6\n        /* \"#utility.yul\":4718:4784   */\n      tag_109\n      jump\t// in\n    tag_197:\n        /* \"#utility.yul\":4794:4867   */\n      tag_198\n        /* \"#utility.yul\":4862:4865   */\n      0x80\n        /* \"#utility.yul\":4851:4860   */\n      dup4\n        /* \"#utility.yul\":4847:4866   */\n      add\n        /* \"#utility.yul\":4838:4844   */\n      dup5\n        /* \"#utility.yul\":4794:4867   */\n      tag_116\n      jump\t// in\n    tag_198:\n        /* \"#utility.yul\":4099:4874   */\n      swap7\n      swap6\n      pop\n      pop\n      pop\n      pop\n      pop\n      pop\n      jump\t// out\n        /* \"#utility.yul\":4880:4997   */\n    tag_119:\n        /* \"#utility.yul\":4989:4990   */\n      0x00\n        /* \"#utility.yul\":4986:4987   */\n      dup1\n        /* \"#utility.yul\":4979:4991   */\n      revert\n        /* \"#utility.yul\":5003:5120   */\n    tag_120:\n        /* \"#utility.yul\":5112:5113   */\n      0x00\n        /* \"#utility.yul\":5109:5110   */\n      dup1\n        /* \"#utility.yul\":5102:5114   */\n      revert\n        /* \"#utility.yul\":5126:5306   */\n    tag_121:\n        /* \"#utility.yul\":5174:5251   */\n      0x4e487b7100000000000000000000000000000000000000000000000000000000\n        /* \"#utility.yul\":5171:5172   */\n      0x00\n        /* \"#utility.yul\":5164:5252   */\n      mstore\n        /* \"#utility.yul\":5271:5275   */\n      0x41\n        /* \"#utility.yul\":5268:5269   */\n      0x04\n        /* \"#utility.yul\":5261:5276   */\n      mstore\n        /* \"#utility.yul\":5295:5299   */\n      0x24\n        /* \"#utility.yul\":5292:5293   */\n      0x00\n        /* \"#utility.yul\":5285:5300   */\n      revert\n        /* \"#utility.yul\":5312:5593   */\n    tag_122:\n        /* \"#utility.yul\":5395:5422   */\n      tag_203\n        /* \"#utility.yul\":5417:5421   */\n      dup3\n        /* \"#utility.yul\":5395:5422   */\n      tag_114\n      jump\t// in\n    tag_203:\n        /* \"#utility.yul\":5387:5393   */\n      dup2\n        /* \"#utility.yul\":5383:5423   */\n      add\n        /* \"#utility.yul\":5525:5531   */\n      dup2\n        /* \"#utility.yul\":5513:5523   */\n      dup2\n        /* \"#utility.yul\":5510:5532   */\n      lt\n        /* \"#utility.yul\":5489:5507   */\n      0xffffffffffffffff\n        /* \"#utility.yul\":5477:5487   */\n      dup3\n        /* \"#utility.yul\":5474:5508   */\n      gt\n        /* \"#utility.yul\":5471:5533   */\n      or\n        /* \"#utility.yul\":5468:5556   */\n      iszero\n      tag_204\n      jumpi\n        /* \"#utility.yul\":5536:5554   */\n      tag_205\n      tag_121\n      jump\t// in\n    tag_205:\n        /* \"#utility.yul\":5468:5556   */\n    tag_204:\n        /* \"#utility.yul\":5576:5586   */\n      dup1\n        /* \"#utility.yul\":5572:5574   */\n      0x40\n        /* \"#utility.yul\":5565:5587   */\n      mstore\n        /* \"#utility.yul\":5355:5593   */\n      pop\n        /* \"#utility.yul\":5312:5593   */\n      pop\n      pop\n      jump\t// out\n        /* \"#utility.yul\":5599:5728   */\n    tag_123:\n        /* \"#utility.yul\":5633:5639   */\n      0x00\n        /* \"#utility.yul\":5660:5680   */\n      tag_207\n      tag_98\n      jump\t// in\n    tag_207:\n        /* \"#utility.yul\":5650:5680   */\n      swap1\n      pop\n        /* \"#utility.yul\":5689:5722   */\n      tag_208\n        /* \"#utility.yul\":5717:5721   */\n      dup3\n        /* \"#utility.yul\":5709:5715   */\n      dup3\n        /* \"#utility.yul\":5689:5722   */\n      tag_122\n      jump\t// in\n    tag_208:\n        /* \"#utility.yul\":5599:5728   */\n      swap2\n      swap1\n      pop\n      jump\t// out\n        /* \"#utility.yul\":5734:6042   */\n    tag_124:\n        /* \"#utility.yul\":5796:5800   */\n      0x00\n        /* \"#utility.yul\":5886:5904   */\n      0xffffffffffffffff\n        /* \"#utility.yul\":5878:5884   */\n      dup3\n        /* \"#utility.yul\":5875:5905   */\n      gt\n        /* \"#utility.yul\":5872:5928   */\n      iszero\n      tag_210\n      jumpi\n        /* \"#utility.yul\":5908:5926   */\n      tag_211\n      tag_121\n      jump\t// in\n    tag_211:\n        /* \"#utility.yul\":5872:5928   */\n    tag_210:\n        /* \"#utility.yul\":5946:5975   */\n      tag_212\n        /* \"#utility.yul\":5968:5974   */\n      dup3\n        /* \"#utility.yul\":5946:5975   */\n      tag_114\n      jump\t// in\n    tag_212:\n        /* \"#utility.yul\":5938:5975   */\n      swap1\n      pop\n        /* \"#utility.yul\":6030:6034   */\n      0x20\n        /* \"#utility.yul\":6024:6028   */\n      dup2\n        /* \"#utility.yul\":6020:6035   */\n      add\n        /* \"#utility.yul\":6012:6035   */\n      swap1\n      pop\n        /* \"#utility.yul\":5734:6042   */\n      swap2\n      swap1\n      pop\n      jump\t// out\n        /* \"#utility.yul\":6048:6202   */\n    tag_125:\n        /* \"#utility.yul\":6132:6138   */\n      dup3\n        /* \"#utility.yul\":6127:6130   */\n      dup2\n        /* \"#utility.yul\":6122:6125   */\n      dup4\n        /* \"#utility.yul\":6109:6139   */\n      calldatacopy\n        /* \"#utility.yul\":6194:6195   */\n      0x00\n        /* \"#utility.yul\":6185:6191   */\n      dup4\n        /* \"#utility.yul\":6180:6183   */\n      dup4\n        /* \"#utility.yul\":6176:6192   */\n      add\n        /* \"#utility.yul\":6169:6196   */\n      mstore\n        /* \"#utility.yul\":6048:6202   */\n      pop\n      pop\n      pop\n      jump\t// out\n        /* \"#utility.yul\":6208:6620   */\n    tag_126:\n        /* \"#utility.yul\":6286:6291   */\n      0x00\n        /* \"#utility.yul\":6311:6377   */\n      tag_215\n        /* \"#utility.yul\":6327:6376   */\n      tag_216\n        /* \"#utility.yul\":6369:6375   */\n      dup5\n        /* \"#utility.yul\":6327:6376   */\n      tag_124\n      jump\t// in\n    tag_216:\n        /* \"#utility.yul\":6311:6377   */\n      tag_123\n      jump\t// in\n    tag_215:\n        /* \"#utility.yul\":6302:6377   */\n      swap1\n      pop\n        /* \"#utility.yul\":6400:6406   */\n      dup3\n        /* \"#utility.yul\":6393:6398   */\n      dup2\n        /* \"#utility.yul\":6386:6407   */\n      mstore\n        /* \"#utility.yul\":6438:6442   */\n      0x20\n        /* \"#utility.yul\":6431:6436   */\n      dup2\n        /* \"#utility.yul\":6427:6443   */\n      add\n        /* \"#utility.yul\":6476:6479   */\n      dup5\n        /* \"#utility.yul\":6467:6473   */\n      dup5\n        /* \"#utility.yul\":6462:6465   */\n      dup5\n        /* \"#utility.yul\":6458:6474   */\n      add\n        /* \"#utility.yul\":6455:6480   */\n      gt\n        /* \"#utility.yul\":6452:6564   */\n      iszero\n      tag_217\n      jumpi\n        /* \"#utility.yul\":6483:6562   */\n      tag_218\n      tag_120\n      jump\t// in\n    tag_218:\n        /* \"#utility.yul\":6452:6564   */\n    tag_217:\n        /* \"#utility.yul\":6573:6614   */\n      tag_219\n        /* \"#utility.yul\":6607:6613   */\n      dup5\n        /* \"#utility.yul\":6602:6605   */\n      dup3\n        /* \"#utility.yul\":6597:6600   */\n      dup6\n        /* \"#utility.yul\":6573:6614   */\n      tag_125\n      jump\t// in\n    tag_219:\n        /* \"#utility.yul\":6292:6620   */\n      pop\n        /* \"#utility.yul\":6208:6620   */\n      swap4\n      swap3\n      pop\n      pop\n      pop\n      jump\t// out\n        /* \"#utility.yul\":6640:6980   */\n    tag_127:\n        /* \"#utility.yul\":6696:6701   */\n      0x00\n        /* \"#utility.yul\":6745:6748   */\n      dup3\n        /* \"#utility.yul\":6738:6742   */\n      0x1f\n        /* \"#utility.yul\":6730:6736   */\n      dup4\n        /* \"#utility.yul\":6726:6743   */\n      add\n        /* \"#utility.yul\":6722:6749   */\n      slt\n        /* \"#utility.yul\":6712:6834   */\n      tag_221\n      jumpi\n        /* \"#utility.yul\":6753:6832   */\n      tag_222\n      tag_119\n      jump\t// in\n    tag_222:\n        /* \"#utility.yul\":6712:6834   */\n    tag_221:\n        /* \"#utility.yul\":6870:6876   */\n      dup2\n        /* \"#utility.yul\":6857:6877   */\n      calldataload\n        /* \"#utility.yul\":6895:6974   */\n      tag_223\n        /* \"#utility.yul\":6970:6973   */\n      dup5\n        /* \"#utility.yul\":6962:6968   */\n      dup3\n        /* \"#utility.yul\":6955:6959   */\n      0x20\n        /* \"#utility.yul\":6947:6953   */\n      dup7\n        /* \"#utility.yul\":6943:6960   */\n      add\n        /* \"#utility.yul\":6895:6974   */\n      tag_126\n      jump\t// in\n    tag_223:\n        /* \"#utility.yul\":6886:6974   */\n      swap2\n      pop\n        /* \"#utility.yul\":6702:6980   */\n      pop\n        /* \"#utility.yul\":6640:6980   */\n      swap3\n      swap2\n      pop\n      pop\n      jump\t// out\n        /* \"#utility.yul\":6986:7785   */\n    tag_37:\n        /* \"#utility.yul\":7073:7079   */\n      0x00\n        /* \"#utility.yul\":7081:7087   */\n      dup1\n        /* \"#utility.yul\":7089:7095   */\n      0x00\n        /* \"#utility.yul\":7138:7140   */\n      0x60\n        /* \"#utility.yul\":7126:7135   */\n      dup5\n        /* \"#utility.yul\":7117:7124   */\n      dup7\n        /* \"#utility.yul\":7113:7136   */\n      sub\n        /* \"#utility.yul\":7109:7141   */\n      slt\n        /* \"#utility.yul\":7106:7225   */\n      iszero\n      tag_225\n      jumpi\n        /* \"#utility.yul\":7144:7223   */\n      tag_226\n      tag_99\n      jump\t// in\n    tag_226:\n        /* \"#utility.yul\":7106:7225   */\n    tag_225:\n        /* \"#utility.yul\":7292:7293   */\n      0x00\n        /* \"#utility.yul\":7281:7290   */\n      dup5\n        /* \"#utility.yul\":7277:7294   */\n      add\n        /* \"#utility.yul\":7264:7295   */\n      calldataload\n        /* \"#utility.yul\":7322:7340   */\n      0xffffffffffffffff\n        /* \"#utility.yul\":7314:7320   */\n      dup2\n        /* \"#utility.yul\":7311:7341   */\n      gt\n        /* \"#utility.yul\":7308:7425   */\n      iszero\n      tag_227\n      jumpi\n        /* \"#utility.yul\":7344:7423   */\n      tag_228\n      tag_100\n      jump\t// in\n    tag_228:\n        /* \"#utility.yul\":7308:7425   */\n    tag_227:\n        /* \"#utility.yul\":7449:7512   */\n      tag_229\n        /* \"#utility.yul\":7504:7511   */\n      dup7\n        /* \"#utility.yul\":7495:7501   */\n      dup3\n        /* \"#utility.yul\":7484:7493   */\n      dup8\n        /* \"#utility.yul\":7480:7502   */\n      add\n        /* \"#utility.yul\":7449:7512   */\n      tag_127\n      jump\t// in\n    tag_229:\n        /* \"#utility.yul\":7439:7512   */\n      swap4\n      pop\n        /* \"#utility.yul\":7235:7522   */\n      pop\n        /* \"#utility.yul\":7561:7563   */\n      0x20\n        /* \"#utility.yul\":7587:7640   */\n      tag_230\n        /* \"#utility.yul\":7632:7639   */\n      dup7\n        /* \"#utility.yul\":7623:7629   */\n      dup3\n        /* \"#utility.yul\":7612:7621   */\n      dup8\n        /* \"#utility.yul\":7608:7630   */\n      add\n        /* \"#utility.yul\":7587:7640   */\n      tag_103\n      jump\t// in\n    tag_230:\n        /* \"#utility.yul\":7577:7640   */\n      swap3\n      pop\n        /* \"#utility.yul\":7532:7650   */\n      pop\n        /* \"#utility.yul\":7689:7691   */\n      0x40\n        /* \"#utility.yul\":7715:7768   */\n      tag_231\n        /* \"#utility.yul\":7760:7767   */\n      dup7\n        /* \"#utility.yul\":7751:7757   */\n      dup3\n        /* \"#utility.yul\":7740:7749   */\n      dup8\n        /* \"#utility.yul\":7736:7758   */\n      add\n        /* \"#utility.yul\":7715:7768   */\n      tag_107\n      jump\t// in\n    tag_231:\n        /* \"#utility.yul\":7705:7768   */\n      swap2\n      pop\n        /* \"#utility.yul\":7660:7778   */\n      pop\n        /* \"#utility.yul\":6986:7785   */\n      swap3\n      pop\n      swap3\n      pop\n      swap3\n      jump\t// out\n        /* \"#utility.yul\":7791:8013   */\n    tag_43:\n        /* \"#utility.yul\":7884:7888   */\n      0x00\n        /* \"#utility.yul\":7922:7924   */\n      0x20\n        /* \"#utility.yul\":7911:7920   */\n      dup3\n        /* \"#utility.yul\":7907:7925   */\n      add\n        /* \"#utility.yul\":7899:7925   */\n      swap1\n      pop\n        /* \"#utility.yul\":7935:8006   */\n      tag_233\n        /* \"#utility.yul\":8003:8004   */\n      0x00\n        /* \"#utility.yul\":7992:8001   */\n      dup4\n        /* \"#utility.yul\":7988:8005   */\n      add\n        /* \"#utility.yul\":7979:7985   */\n      dup5\n        /* \"#utility.yul\":7935:8006   */\n      tag_116\n      jump\t// in\n    tag_233:\n        /* \"#utility.yul\":7791:8013   */\n      swap3\n      swap2\n      pop\n      pop\n      jump\t// out\n        /* \"#utility.yul\":8019:8199   */\n    tag_128:\n        /* \"#utility.yul\":8067:8144   */\n      0x4e487b7100000000000000000000000000000000000000000000000000000000\n        /* \"#utility.yul\":8064:8065   */\n      0x00\n        /* \"#utility.yul\":8057:8145   */\n      mstore\n        /* \"#utility.yul\":8164:8168   */\n      0x12\n        /* \"#utility.yul\":8161:8162   */\n      0x04\n        /* \"#utility.yul\":8154:8169   */\n      mstore\n        /* \"#utility.yul\":8188:8192   */\n      0x24\n        /* \"#utility.yul\":8185:8186   */\n      0x00\n        /* \"#utility.yul\":8178:8193   */\n      revert\n        /* \"#utility.yul\":8205:8385   */\n    tag_129:\n        /* \"#utility.yul\":8253:8330   */\n      0x4e487b7100000000000000000000000000000000000000000000000000000000\n        /* \"#utility.yul\":8250:8251   */\n      0x00\n        /* \"#utility.yul\":8243:8331   */\n      mstore\n        /* \"#utility.yul\":8350:8354   */\n      0x11\n        /* \"#utility.yul\":8347:8348   */\n      0x04\n        /* \"#utility.yul\":8340:8355   */\n      mstore\n        /* \"#utility.yul\":8374:8378   */\n      0x24\n        /* \"#utility.yul\":8371:8372   */\n      0x00\n        /* \"#utility.yul\":8364:8379   */\n      revert\n        /* \"#utility.yul\":8391:8576   */\n    tag_54:\n        /* \"#utility.yul\":8431:8432   */\n      0x00\n        /* \"#utility.yul\":8448:8468   */\n      tag_237\n        /* \"#utility.yul\":8466:8467   */\n      dup3\n        /* \"#utility.yul\":8448:8468   */\n      tag_101\n      jump\t// in\n    tag_237:\n        /* \"#utility.yul\":8443:8468   */\n      swap2\n      pop\n        /* \"#utility.yul\":8482:8502   */\n      tag_238\n        /* \"#utility.yul\":8500:8501   */\n      dup4\n        /* \"#utility.yul\":8482:8502   */\n      tag_101\n      jump\t// in\n    tag_238:\n        /* \"#utility.yul\":8477:8502   */\n      swap3\n      pop\n        /* \"#utility.yul\":8521:8522   */\n      dup3\n        /* \"#utility.yul\":8511:8546   */\n      tag_239\n      jumpi\n        /* \"#utility.yul\":8526:8544   */\n      tag_240\n      tag_128\n      jump\t// in\n    tag_240:\n        /* \"#utility.yul\":8511:8546   */\n    tag_239:\n        /* \"#utility.yul\":8568:8569   */\n      dup3\n        /* \"#utility.yul\":8565:8566   */\n      dup3\n        /* \"#utility.yul\":8561:8570   */\n      div\n        /* \"#utility.yul\":8556:8570   */\n      swap1\n      pop\n        /* \"#utility.yul\":8391:8576   */\n      swap3\n      swap2\n      pop\n      pop\n      jump\t// out\n        /* \"#utility.yul\":8582:8762   */\n    tag_130:\n        /* \"#utility.yul\":8722:8754   */\n      0x417070726f766573206d757374206265206d6f7265207468616e203530250000\n        /* \"#utility.yul\":8718:8719   */\n      0x00\n        /* \"#utility.yul\":8710:8716   */\n      dup3\n        /* \"#utility.yul\":8706:8720   */\n      add\n        /* \"#utility.yul\":8699:8755   */\n      mstore\n        /* \"#utility.yul\":8582:8762   */\n      pop\n      jump\t// out\n        /* \"#utility.yul\":8768:9134   */\n    tag_131:\n        /* \"#utility.yul\":8910:8913   */\n      0x00\n        /* \"#utility.yul\":8931:8998   */\n      tag_243\n        /* \"#utility.yul\":8995:8997   */\n      0x1e\n        /* \"#utility.yul\":8990:8993   */\n      dup4\n        /* \"#utility.yul\":8931:8998   */\n      tag_112\n      jump\t// in\n    tag_243:\n        /* \"#utility.yul\":8924:8998   */\n      swap2\n      pop\n        /* \"#utility.yul\":9007:9100   */\n      tag_244\n        /* \"#utility.yul\":9096:9099   */\n      dup3\n        /* \"#utility.yul\":9007:9100   */\n      tag_130\n      jump\t// in\n    tag_244:\n        /* \"#utility.yul\":9125:9127   */\n      0x20\n        /* \"#utility.yul\":9120:9123   */\n      dup3\n        /* \"#utility.yul\":9116:9128   */\n      add\n        /* \"#utility.yul\":9109:9128   */\n      swap1\n      pop\n        /* \"#utility.yul\":8768:9134   */\n      swap2\n      swap1\n      pop\n      jump\t// out\n        /* \"#utility.yul\":9140:9559   */\n    tag_57:\n        /* \"#utility.yul\":9306:9310   */\n      0x00\n        /* \"#utility.yul\":9344:9346   */\n      0x20\n        /* \"#utility.yul\":9333:9342   */\n      dup3\n        /* \"#utility.yul\":9329:9347   */\n      add\n        /* \"#utility.yul\":9321:9347   */\n      swap1\n      pop\n        /* \"#utility.yul\":9393:9402   */\n      dup2\n        /* \"#utility.yul\":9387:9391   */\n      dup2\n        /* \"#utility.yul\":9383:9403   */\n      sub\n        /* \"#utility.yul\":9379:9380   */\n      0x00\n        /* \"#utility.yul\":9368:9377   */\n      dup4\n        /* \"#utility.yul\":9364:9381   */\n      add\n        /* \"#utility.yul\":9357:9404   */\n      mstore\n        /* \"#utility.yul\":9421:9552   */\n      tag_246\n        /* \"#utility.yul\":9547:9551   */\n      dup2\n        /* \"#utility.yul\":9421:9552   */\n      tag_131\n      jump\t// in\n    tag_246:\n        /* \"#utility.yul\":9413:9552   */\n      swap1\n      pop\n        /* \"#utility.yul\":9140:9559   */\n      swap2\n      swap1\n      pop\n      jump\t// out\n        /* \"#utility.yul\":9565:9739   */\n    tag_132:\n        /* \"#utility.yul\":9705:9731   */\n      0x5265717565737420616c726561647920636f6d706c6574650000000000000000\n        /* \"#utility.yul\":9701:9702   */\n      0x00\n        /* \"#utility.yul\":9693:9699   */\n      dup3\n        /* \"#utility.yul\":9689:9703   */\n      add\n        /* \"#utility.yul\":9682:9732   */\n      mstore\n        /* \"#utility.yul\":9565:9739   */\n      pop\n      jump\t// out\n        /* \"#utility.yul\":9745:10111   */\n    tag_133:\n        /* \"#utility.yul\":9887:9890   */\n      0x00\n        /* \"#utility.yul\":9908:9975   */\n      tag_249\n        /* \"#utility.yul\":9972:9974   */\n      0x18\n        /* \"#utility.yul\":9967:9970   */\n      dup4\n        /* \"#utility.yul\":9908:9975   */\n      tag_112\n      jump\t// in\n    tag_249:\n        /* \"#utility.yul\":9901:9975   */\n      swap2\n      pop\n        /* \"#utility.yul\":9984:10077   */\n      tag_250\n        /* \"#utility.yul\":10073:10076   */\n      dup3\n        /* \"#utility.yul\":9984:10077   */\n      tag_132\n      jump\t// in\n    tag_250:\n        /* \"#utility.yul\":10102:10104   */\n      0x20\n        /* \"#utility.yul\":10097:10100   */\n      dup3\n        /* \"#utility.yul\":10093:10105   */\n      add\n        /* \"#utility.yul\":10086:10105   */\n      swap1\n      pop\n        /* \"#utility.yul\":9745:10111   */\n      swap2\n      swap1\n      pop\n      jump\t// out\n        /* \"#utility.yul\":10117:10536   */\n    tag_60:\n        /* \"#utility.yul\":10283:10287   */\n      0x00\n        /* \"#utility.yul\":10321:10323   */\n      0x20\n        /* \"#utility.yul\":10310:10319   */\n      dup3\n        /* \"#utility.yul\":10306:10324   */\n      add\n        /* \"#utility.yul\":10298:10324   */\n      swap1\n      pop\n        /* \"#utility.yul\":10370:10379   */\n      dup2\n        /* \"#utility.yul\":10364:10368   */\n      dup2\n        /* \"#utility.yul\":10360:10380   */\n      sub\n        /* \"#utility.yul\":10356:10357   */\n      0x00\n        /* \"#utility.yul\":10345:10354   */\n      dup4\n        /* \"#utility.yul\":10341:10358   */\n      add\n        /* \"#utility.yul\":10334:10381   */\n      mstore\n        /* \"#utility.yul\":10398:10529   */\n      tag_252\n        /* \"#utility.yul\":10524:10528   */\n      dup2\n        /* \"#utility.yul\":10398:10529   */\n      tag_133\n      jump\t// in\n    tag_252:\n        /* \"#utility.yul\":10390:10529   */\n      swap1\n      pop\n        /* \"#utility.yul\":10117:10536   */\n      swap2\n      swap1\n      pop\n      jump\t// out\n        /* \"#utility.yul\":10542:10722   */\n    tag_134:\n        /* \"#utility.yul\":10590:10667   */\n      0x4e487b7100000000000000000000000000000000000000000000000000000000\n        /* \"#utility.yul\":10587:10588   */\n      0x00\n        /* \"#utility.yul\":10580:10668   */\n      mstore\n        /* \"#utility.yul\":10687:10691   */\n      0x22\n        /* \"#utility.yul\":10684:10685   */\n      0x04\n        /* \"#utility.yul\":10677:10692   */\n      mstore\n        /* \"#utility.yul\":10711:10715   */\n      0x24\n        /* \"#utility.yul\":10708:10709   */\n      0x00\n        /* \"#utility.yul\":10701:10716   */\n      revert\n        /* \"#utility.yul\":10728:11048   */\n    tag_64:\n        /* \"#utility.yul\":10772:10778   */\n      0x00\n        /* \"#utility.yul\":10809:10810   */\n      0x02\n        /* \"#utility.yul\":10803:10807   */\n      dup3\n        /* \"#utility.yul\":10799:10811   */\n      div\n        /* \"#utility.yul\":10789:10811   */\n      swap1\n      pop\n        /* \"#utility.yul\":10856:10857   */\n      0x01\n        /* \"#utility.yul\":10850:10854   */\n      dup3\n        /* \"#utility.yul\":10846:10858   */\n      and\n        /* \"#utility.yul\":10877:10895   */\n      dup1\n        /* \"#utility.yul\":10867:10948   */\n      tag_255\n      jumpi\n        /* \"#utility.yul\":10933:10937   */\n      0x7f\n        /* \"#utility.yul\":10925:10931   */\n      dup3\n        /* \"#utility.yul\":10921:10938   */\n      and\n        /* \"#utility.yul\":10911:10938   */\n      swap2\n      pop\n        /* \"#utility.yul\":10867:10948   */\n    tag_255:\n        /* \"#utility.yul\":10995:10997   */\n      0x20\n        /* \"#utility.yul\":10987:10993   */\n      dup3\n        /* \"#utility.yul\":10984:10998   */\n      lt\n        /* \"#utility.yul\":10964:10982   */\n      dup2\n        /* \"#utility.yul\":10961:10999   */\n      eq\n        /* \"#utility.yul\":10958:11042   */\n      iszero\n      tag_256\n      jumpi\n        /* \"#utility.yul\":11014:11032   */\n      tag_257\n      tag_134\n      jump\t// in\n    tag_257:\n        /* \"#utility.yul\":10958:11042   */\n    tag_256:\n        /* \"#utility.yul\":10779:11048   */\n      pop\n        /* \"#utility.yul\":10728:11048   */\n      swap2\n      swap1\n      pop\n      jump\t// out\n        /* \"#utility.yul\":11054:11287   */\n    tag_73:\n        /* \"#utility.yul\":11093:11096   */\n      0x00\n        /* \"#utility.yul\":11116:11140   */\n      tag_259\n        /* \"#utility.yul\":11134:11139   */\n      dup3\n        /* \"#utility.yul\":11116:11140   */\n      tag_101\n      jump\t// in\n    tag_259:\n        /* \"#utility.yul\":11107:11140   */\n      swap2\n      pop\n        /* \"#utility.yul\":11162:11228   */\n      0xffffffffffffffffffffffffffffffffffffffffffffffffffffffffffffffff\n        /* \"#utility.yul\":11155:11160   */\n      dup3\n        /* \"#utility.yul\":11152:11229   */\n      eq\n        /* \"#utility.yul\":11149:11252   */\n      iszero\n      tag_260\n      jumpi\n        /* \"#utility.yul\":11232:11250   */\n      tag_261\n      tag_129\n      jump\t// in\n    tag_261:\n        /* \"#utility.yul\":11149:11252   */\n    tag_260:\n        /* \"#utility.yul\":11279:11280   */\n      0x01\n        /* \"#utility.yul\":11272:11277   */\n      dup3\n        /* \"#utility.yul\":11268:11281   */\n      add\n        /* \"#utility.yul\":11261:11281   */\n      swap1\n      pop\n        /* \"#utility.yul\":11054:11287   */\n      swap2\n      swap1\n      pop\n      jump\t// out\n        /* \"#utility.yul\":11293:11458   */\n    tag_135:\n        /* \"#utility.yul\":11433:11450   */\n      0x4e6f7420616e20617070726f7665720000000000000000000000000000000000\n        /* \"#utility.yul\":11429:11430   */\n      0x00\n        /* \"#utility.yul\":11421:11427   */\n      dup3\n        /* \"#utility.yul\":11417:11431   */\n      add\n        /* \"#utility.yul\":11410:11451   */\n      mstore\n        /* \"#utility.yul\":11293:11458   */\n      pop\n      jump\t// out\n        /* \"#utility.yul\":11464:11830   */\n    tag_136:\n        /* \"#utility.yul\":11606:11609   */\n      0x00\n        /* \"#utility.yul\":11627:11694   */\n      tag_264\n        /* \"#utility.yul\":11691:11693   */\n      0x0f\n        /* \"#utility.yul\":11686:11689   */\n      dup4\n        /* \"#utility.yul\":11627:11694   */\n      tag_112\n      jump\t// in\n    tag_264:\n        /* \"#utility.yul\":11620:11694   */\n      swap2\n      pop\n        /* \"#utility.yul\":11703:11796   */\n      tag_265\n        /* \"#utility.yul\":11792:11795   */\n      dup3\n        /* \"#utility.yul\":11703:11796   */\n      tag_135\n      jump\t// in\n    tag_265:\n        /* \"#utility.yul\":11821:11823   */\n      0x20\n        /* \"#utility.yul\":11816:11819   */\n      dup3\n        /* \"#utility.yul\":11812:11824   */\n      add\n        /* \"#utility.yul\":11805:11824   */\n      swap1\n      pop\n        /* \"#utility.yul\":11464:11830   */\n      swap2\n      swap1\n      pop\n      jump\t// out\n        /* \"#utility.yul\":11836:12255   */\n    tag_83:\n        /* \"#utility.yul\":12002:12006   */\n      0x00\n        /* \"#utility.yul\":12040:12042   */\n      0x20\n        /* \"#utility.yul\":12029:12038   */\n      dup3\n        /* \"#utility.yul\":12025:12043   */\n      add\n        /* \"#utility.yul\":12017:12043   */\n      swap1\n      pop\n        /* \"#utility.yul\":12089:12098   */\n      dup2\n        /* \"#utility.yul\":12083:12087   */\n      dup2\n        /* \"#utility.yul\":12079:12099   */\n      sub\n        /* \"#utility.yul\":12075:12076   */\n      0x00\n        /* \"#utility.yul\":12064:12073   */\n      dup4\n        /* \"#utility.yul\":12060:12077   */\n      add\n        /* \"#utility.yul\":12053:12100   */\n      mstore\n        /* \"#utility.yul\":12117:12248   */\n      tag_267\n        /* \"#utility.yul\":12243:12247   */\n      dup2\n        /* \"#utility.yul\":12117:12248   */\n      tag_136\n      jump\t// in\n    tag_267:\n        /* \"#utility.yul\":12109:12248   */\n      swap1\n      pop\n        /* \"#utility.yul\":11836:12255   */\n      swap2\n      swap1\n      pop\n      jump\t// out\n        /* \"#utility.yul\":12261:12427   */\n    tag_137:\n        /* \"#utility.yul\":12401:12419   */\n      0x416c726561647920617070726f76656400000000000000000000000000000000\n        /* \"#utility.yul\":12397:12398   */\n      0x00\n        /* \"#utility.yul\":12389:12395   */\n      dup3\n        /* \"#utility.yul\":12385:12399   */\n      add\n        /* \"#utility.yul\":12378:12420   */\n      mstore\n        /* \"#utility.yul\":12261:12427   */\n      pop\n      jump\t// out\n        /* \"#utility.yul\":12433:12799   */\n    tag_138:\n        /* \"#utility.yul\":12575:12578   */\n      0x00\n        /* \"#utility.yul\":12596:12663   */\n      tag_270\n        /* \"#utility.yul\":12660:12662   */\n      0x10\n        /* \"#utility.yul\":12655:12658   */\n      dup4\n        /* \"#utility.yul\":12596:12663   */\n      tag_112\n      jump\t// in\n    tag_270:\n        /* \"#utility.yul\":12589:12663   */\n      swap2\n      pop\n        /* \"#utility.yul\":12672:12765   */\n      tag_271\n        /* \"#utility.yul\":12761:12764   */\n      dup3\n        /* \"#utility.yul\":12672:12765   */\n      tag_137\n      jump\t// in\n    tag_271:\n        /* \"#utility.yul\":12790:12792   */\n      0x20\n        /* \"#utility.yul\":12785:12788   */\n      dup3\n        /* \"#utility.yul\":12781:12793   */\n      add\n        /* \"#utility.yul\":12774:12793   */\n      swap1\n      pop\n        /* \"#utility.yul\":12433:12799   */\n      swap2\n      swap1\n      pop\n      jump\t// out\n        /* \"#utility.yul\":12805:13224   */\n    tag_86:\n        /* \"#utility.yul\":12971:12975   */\n      0x00\n        /* \"#utility.yul\":13009:13011   */\n      0x20\n        /* \"#utility.yul\":12998:13007   */\n      dup3\n        /* \"#utility.yul\":12994:13012   */\n      add\n        /* \"#utility.yul\":12986:13012   */\n      swap1\n      pop\n        /* \"#utility.yul\":13058:13067   */\n      dup2\n        /* \"#utility.yul\":13052:13056   */\n      dup2\n        /* \"#utility.yul\":13048:13068   */\n      sub\n        /* \"#utility.yul\":13044:13045   */\n      0x00\n        /* \"#utility.yul\":13033:13042   */\n      dup4\n        /* \"#utility.yul\":13029:13046   */\n      add\n        /* \"#utility.yul\":13022:13069   */\n      mstore\n        /* \"#utility.yul\":13086:13217   */\n      tag_273\n        /* \"#utility.yul\":13212:13216   */\n      dup2\n        /* \"#utility.yul\":13086:13217   */\n      tag_138\n      jump\t// in\n    tag_273:\n        /* \"#utility.yul\":13078:13217   */\n      swap1\n      pop\n        /* \"#utility.yul\":12805:13224   */\n      swap2\n      swap1\n      pop\n      jump\t// out\n\n    auxdata: 0xa26469706673582212204e4d3ae86a8ab0dfaa517a61e39048bf2962cd1c91541143e1ac68f1407ccdca64736f6c63430008090033\n}\n","bytecode":{"linkReferences":{},"object":"60806040523480156200001157600080fd5b506040516200117b3803806200117b83398181016040528101906200003791906200012b565b806000806101000a81548173ffffffffffffffffffffffffffffffffffffffff021916908373ffffffffffffffffffffffffffffffffffffffff16021790555081600181905550505062000172565b600080fd5b6000819050919050565b620000a0816200008b565b8114620000ac57600080fd5b50565b600081519050620000c08162000095565b92915050565b600073ffffffffffffffffffffffffffffffffffffffff82169050919050565b6000620000f382620000c6565b9050919050565b6200010581620000e6565b81146200011157600080fd5b50565b6000815190506200012581620000fa565b92915050565b6000806040838503121562000145576200014462000086565b5b60006200015585828601620000af565b9250506020620001688582860162000114565b9150509250929050565b610ff980620001826000396000f3fe60806040526004361061007b5760003560e01c80638a9cfd551161004e5780638a9cfd5514610152578063937e09b11461017b578063d7bb99ba146101a6578063d7d1bbdb146101b05761007b565b806303441006146100805780630a144391146100a9578063481c6a75146100e657806381d12c5814610111575b600080fd5b34801561008c57600080fd5b506100a760048036038101906100a291906108e0565b6101d9565b005b3480156100b557600080fd5b506100d060048036038101906100cb919061096b565b61037d565b6040516100dd91906109b3565b60405180910390f35b3480156100f257600080fd5b506100fb61039d565b60405161010891906109dd565b60405180910390f35b34801561011d57600080fd5b50610138600480360381019061013391906108e0565b6103c1565b604051610149959493929190610ac1565b60405180910390f35b34801561015e57600080fd5b5061017960048036038101906101749190610c50565b6104ac565b005b34801561018757600080fd5b506101906105c3565b60405161019d9190610cbf565b60405180910390f35b6101ae6105c9565b005b3480156101bc57600080fd5b506101d760048036038101906101d291906108e0565b610649565b005b60008054906101000a900473ffffffffffffffffffffffffffffffffffffffff1673ffffffffffffffffffffffffffffffffffffffff163373ffffffffffffffffffffffffffffffffffffffff161461023157600080fd5b6000600560008381526020019081526020016000209050600280546102569190610d38565b81600301541161029b576040517f08c379a000000000000000000000000000000000000000000000000000000000815260040161029290610db5565b60405180910390fd5b8060020160149054906101000a900460ff16156102ed576040517f08c379a00000000000000000000000000000000000000000000000000000000081526004016102e490610e21565b60405180910390fd5b8060020160009054906101000a900473ffffffffffffffffffffffffffffffffffffffff1673ffffffffffffffffffffffffffffffffffffffff166108fc82600101549081150290604051600060405180830381858888f1935050505015801561035b573d6000803e3d6000fd5b5060018160020160146101000a81548160ff0219169083151502179055505050565b60036020528060005260406000206000915054906101000a900460ff1681565b60008054906101000a900473ffffffffffffffffffffffffffffffffffffffff1681565b60056020528060005260406000206000915090508060000180546103e490610e70565b80601f016020809104026020016040519081016040528092919081815260200182805461041090610e70565b801561045d5780601f106104325761010080835404028352916020019161045d565b820191906000526020600020905b81548152906001019060200180831161044057829003601f168201915b5050505050908060010154908060020160009054906101000a900473ffffffffffffffffffffffffffffffffffffffff16908060020160149054906101000a900460ff16908060030154905085565b60008054906101000a900473ffffffffffffffffffffffffffffffffffffffff1673ffffffffffffffffffffffffffffffffffffffff163373ffffffffffffffffffffffffffffffffffffffff161461050457600080fd5b6000600560006004600081548092919061051d90610ea2565b9190505581526020019081526020016000209050838160000190805190602001906105499291906107f3565b50828160010181905550818160020160006101000a81548173ffffffffffffffffffffffffffffffffffffffff021916908373ffffffffffffffffffffffffffffffffffffffff16021790555060008160020160146101000a81548160ff0219169083151502179055506000816003018190555050505050565b60015481565b60015434116105d757600080fd5b6001600360003373ffffffffffffffffffffffffffffffffffffffff1673ffffffffffffffffffffffffffffffffffffffff16815260200190815260200160002060006101000a81548160ff0219169083151502179055506002600081548092919061064290610ea2565b9190505550565b6000600560008381526020019081526020016000209050600360003373ffffffffffffffffffffffffffffffffffffffff1673ffffffffffffffffffffffffffffffffffffffff16815260200190815260200160002060009054906101000a900460ff166106ec576040517f08c379a00000000000000000000000000000000000000000000000000000000081526004016106e390610f37565b60405180910390fd5b8060040160003373ffffffffffffffffffffffffffffffffffffffff1673ffffffffffffffffffffffffffffffffffffffff16815260200190815260200160002060009054906101000a900460ff161561077b576040517f08c379a000000000000000000000000000000000000000000000000000000000815260040161077290610fa3565b60405180910390fd5b60018160040160003373ffffffffffffffffffffffffffffffffffffffff1673ffffffffffffffffffffffffffffffffffffffff16815260200190815260200160002060006101000a81548160ff0219169083151502179055508060030160008154809291906107ea90610ea2565b91905055505050565b8280546107ff90610e70565b90600052602060002090601f0160209004810192826108215760008555610868565b82601f1061083a57805160ff1916838001178555610868565b82800160010185558215610868579182015b8281111561086757825182559160200191906001019061084c565b5b5090506108759190610879565b5090565b5b8082111561089257600081600090555060010161087a565b5090565b6000604051905090565b600080fd5b600080fd5b6000819050919050565b6108bd816108aa565b81146108c857600080fd5b50565b6000813590506108da816108b4565b92915050565b6000602082840312156108f6576108f56108a0565b5b6000610904848285016108cb565b91505092915050565b600073ffffffffffffffffffffffffffffffffffffffff82169050919050565b60006109388261090d565b9050919050565b6109488161092d565b811461095357600080fd5b50565b6000813590506109658161093f565b92915050565b600060208284031215610981576109806108a0565b5b600061098f84828501610956565b91505092915050565b60008115159050919050565b6109ad81610998565b82525050565b60006020820190506109c860008301846109a4565b92915050565b6109d78161092d565b82525050565b60006020820190506109f260008301846109ce565b92915050565b600081519050919050565b600082825260208201905092915050565b60005b83811015610a32578082015181840152602081019050610a17565b83811115610a41576000848401525b50505050565b6000601f19601f8301169050919050565b6000610a63826109f8565b610a6d8185610a03565b9350610a7d818560208601610a14565b610a8681610a47565b840191505092915050565b610a9a816108aa565b82525050565b6000610aab8261090d565b9050919050565b610abb81610aa0565b82525050565b600060a0820190508181036000830152610adb8188610a58565b9050610aea6020830187610a91565b610af76040830186610ab2565b610b0460608301856109a4565b610b116080830184610a91565b9695505050505050565b600080fd5b600080fd5b7f4e487b7100000000000000000000000000000000000000000000000000000000600052604160045260246000fd5b610b5d82610a47565b810181811067ffffffffffffffff82111715610b7c57610b7b610b25565b5b80604052505050565b6000610b8f610896565b9050610b9b8282610b54565b919050565b600067ffffffffffffffff821115610bbb57610bba610b25565b5b610bc482610a47565b9050602081019050919050565b82818337600083830152505050565b6000610bf3610bee84610ba0565b610b85565b905082815260208101848484011115610c0f57610c0e610b20565b5b610c1a848285610bd1565b509392505050565b600082601f830112610c3757610c36610b1b565b5b8135610c47848260208601610be0565b91505092915050565b600080600060608486031215610c6957610c686108a0565b5b600084013567ffffffffffffffff811115610c8757610c866108a5565b5b610c9386828701610c22565b9350506020610ca4868287016108cb565b9250506040610cb586828701610956565b9150509250925092565b6000602082019050610cd46000830184610a91565b92915050565b7f4e487b7100000000000000000000000000000000000000000000000000000000600052601260045260246000fd5b7f4e487b7100000000000000000000000000000000000000000000000000000000600052601160045260246000fd5b6000610d43826108aa565b9150610d4e836108aa565b925082610d5e57610d5d610cda565b5b828204905092915050565b7f417070726f766573206d757374206265206d6f7265207468616e203530250000600082015250565b6000610d9f601e83610a03565b9150610daa82610d69565b602082019050919050565b60006020820190508181036000830152610dce81610d92565b9050919050565b7f5265717565737420616c726561647920636f6d706c6574650000000000000000600082015250565b6000610e0b601883610a03565b9150610e1682610dd5565b602082019050919050565b60006020820190508181036000830152610e3a81610dfe565b9050919050565b7f4e487b7100000000000000000000000000000000000000000000000000000000600052602260045260246000fd5b60006002820490506001821680610e8857607f821691505b60208210811415610e9c57610e9b610e41565b5b50919050565b6000610ead826108aa565b91507fffffffffffffffffffffffffffffffffffffffffffffffffffffffffffffffff821415610ee057610edf610d09565b5b600182019050919050565b7f4e6f7420616e20617070726f7665720000000000000000000000000000000000600082015250565b6000610f21600f83610a03565b9150610f2c82610eeb565b602082019050919050565b60006020820190508181036000830152610f5081610f14565b9050919050565b7f416c726561647920617070726f76656400000000000000000000000000000000600082015250565b6000610f8d601083610a03565b9150610f9882610f57565b602082019050919050565b60006020820190508181036000830152610fbc81610f80565b905091905056fea26469706673582212204e4d3ae86a8ab0dfaa517a61e39048bf2962cd1c91541143e1ac68f1407ccdca64736f6c63430008090033","opcodes":"PUSH1 0x80 PUSH1 0x40 MSTORE CALLVALUE DUP1 ISZERO PUSH3 0x11 JUMPI PUSH1 0x0 DUP1 REVERT JUMPDEST POP PUSH1 0x40 MLOAD PUSH3 0x117B CODESIZE SUB DUP1 PUSH3 0x117B DUP4 CODECOPY DUP2 DUP2 ADD PUSH1 0x40 MSTORE DUP2 ADD SWAP1 PUSH3 0x37 SWAP2 SWAP1 PUSH3 0x12B JUMP JUMPDEST DUP1 PUSH1 0x0 DUP1 PUSH2 0x100 EXP DUP2 SLOAD DUP2 PUSH20 0xFFFFFFFFFFFFFFFFFFFFFFFFFFFFFFFFFFFFFFFF MUL NOT AND SWAP1 DUP4 PUSH20 0xFFFFFFFFFFFFFFFFFFFFFFFFFFFFFFFFFFFFFFFF AND MUL OR SWAP1 SSTORE POP DUP2 PUSH1 0x1 DUP2 SWAP1 SSTORE POP POP POP PUSH3 0x172 JUMP JUMPDEST PUSH1 0x0 DUP1 REVERT JUMPDEST PUSH1 0x0 DUP2 SWAP1 POP SWAP2 SWAP1 POP JUMP JUMPDEST PUSH3 0xA0 DUP2 PUSH3 0x8B JUMP JUMPDEST DUP2 EQ PUSH3 0xAC JUMPI PUSH1 0x0 DUP1 REVERT JUMPDEST POP JUMP JUMPDEST PUSH1 0x0 DUP2 MLOAD SWAP1 POP PUSH3 0xC0 DUP2 PUSH3 0x95 JUMP JUMPDEST SWAP3 SWAP2 POP POP JUMP JUMPDEST PUSH1 0x0 PUSH20 0xFFFFFFFFFFFFFFFFFFFFFFFFFFFFFFFFFFFFFFFF DUP3 AND SWAP1 POP SWAP2 SWAP1 POP JUMP JUMPDEST PUSH1 0x0 PUSH3 0xF3 DUP3 PUSH3 0xC6 JUMP JUMPDEST SWAP1 POP SWAP2 SWAP1 POP JUMP JUMPDEST PUSH3 0x105 DUP2 PUSH3 0xE6 JUMP JUMPDEST DUP2 EQ PUSH3 0x111 JUMPI PUSH1 0x0 DUP1 REVERT JUMPDEST POP JUMP JUMPDEST PUSH1 0x0 DUP2 MLOAD SWAP1 POP PUSH3 0x125 DUP2 PUSH3 0xFA JUMP JUMPDEST SWAP3 SWAP2 POP POP JUMP JUMPDEST PUSH1 0x0 DUP1 PUSH1 0x40 DUP4 DUP6 SUB SLT ISZERO PUSH3 0x145 JUMPI PUSH3 0x144 PUSH3 0x86 JUMP JUMPDEST JUMPDEST PUSH1 0x0 PUSH3 0x155 DUP6 DUP3 DUP7 ADD PUSH3 0xAF JUMP JUMPDEST SWAP3 POP POP PUSH1 0x20 PUSH3 0x168 DUP6 DUP3 DUP7 ADD PUSH3 0x114 JUMP JUMPDEST SWAP2 POP POP SWAP3 POP SWAP3 SWAP1 POP JUMP JUMPDEST PUSH2 0xFF9 DUP1 PUSH3 0x182 PUSH1 0x0 CODECOPY PUSH1 0x0 RETURN INVALID PUSH1 0x80 PUSH1 0x40 MSTORE PUSH1 0x4 CALLDATASIZE LT PUSH2 0x7B JUMPI PUSH1 0x0 CALLDATALOAD PUSH1 0xE0 SHR DUP1 PUSH4 0x8A9CFD55 GT PUSH2 0x4E JUMPI DUP1 PUSH4 0x8A9CFD55 EQ PUSH2 0x152 JUMPI DUP1 PUSH4 0x937E09B1 EQ PUSH2 0x17B JUMPI DUP1 PUSH4 0xD7BB99BA EQ PUSH2 0x1A6 JUMPI DUP1 PUSH4 0xD7D1BBDB EQ PUSH2 0x1B0 JUMPI PUSH2 0x7B JUMP JUMPDEST DUP1 PUSH4 0x3441006 EQ PUSH2 0x80 JUMPI DUP1 PUSH4 0xA144391 EQ PUSH2 0xA9 JUMPI DUP1 PUSH4 0x481C6A75 EQ PUSH2 0xE6 JUMPI DUP1 PUSH4 0x81D12C58 EQ PUSH2 0x111 JUMPI JUMPDEST PUSH1 0x0 DUP1 REVERT JUMPDEST CALLVALUE DUP1 ISZERO PUSH2 0x8C JUMPI PUSH1 0x0 DUP1 REVERT JUMPDEST POP PUSH2 0xA7 PUSH1 0x4 DUP1 CALLDATASIZE SUB DUP2 ADD SWAP1 PUSH2 0xA2 SWAP2 SWAP1 PUSH2 0x8E0 JUMP JUMPDEST PUSH2 0x1D9 JUMP JUMPDEST STOP JUMPDEST CALLVALUE DUP1 ISZERO PUSH2 0xB5 JUMPI PUSH1 0x0 DUP1 REVERT JUMPDEST POP PUSH2 0xD0 PUSH1 0x4 DUP1 CALLDATASIZE SUB DUP2 ADD SWAP1 PUSH2 0xCB SWAP2 SWAP1 PUSH2 0x96B JUMP JUMPDEST PUSH2 0x37D JUMP JUMPDEST PUSH1 0x40 MLOAD PUSH2 0xDD SWAP2 SWAP1 PUSH2 0x9B3 JUMP JUMPDEST PUSH1 0x40 MLOAD DUP1 SWAP2 SUB SWAP1 RETURN JUMPDEST CALLVALUE DUP1 ISZERO PUSH2 0xF2 JUMPI PUSH1 0x0 DUP1 REVERT JUMPDEST POP PUSH2 0xFB PUSH2 0x39D JUMP JUMPDEST PUSH1 0x40 MLOAD PUSH2 0x108 SWAP2 SWAP1 PUSH2 0x9DD JUMP JUMPDEST PUSH1 0x40 MLOAD DUP1 SWAP2 SUB SWAP1 RETURN JUMPDEST CALLVALUE DUP1 ISZERO PUSH2 0x11D JUMPI PUSH1 0x0 DUP1 REVERT JUMPDEST POP PUSH2 0x138 PUSH1 0x4 DUP1 CALLDATASIZE SUB DUP2 ADD SWAP1 PUSH2 0x133 SWAP2 SWAP1 PUSH2 0x8E0 JUMP JUMPDEST PUSH2 0x3C1 JUMP JUMPDEST PUSH1 0x40 MLOAD PUSH2 0x149 SWAP6 SWAP5 SWAP4 SWAP3 SWAP2 SWAP1 PUSH2 0xAC1 JUMP JUMPDEST PUSH1 0x40 MLOAD DUP1 SWAP2 SUB SWAP1 RETURN JUMPDEST CALLVALUE DUP1 ISZERO PUSH2 0x15E JUMPI PUSH1 0x0 DUP1 REVERT JUMPDEST POP PUSH2 0x179 PUSH1 0x4 DUP1 CALLDATASIZE SUB DUP2 ADD SWAP1 PUSH2 0x174 SWAP2 SWAP1 PUSH2 0xC50 JUMP JUMPDEST PUSH2 0x4AC JUMP JUMPDEST STOP JUMPDEST CALLVALUE DUP1 ISZERO PUSH2 0x187 JUMPI PUSH1 0x0 DUP1 REVERT JUMPDEST POP PUSH2 0x190 PUSH2 0x5C3 JUMP JUMPDEST PUSH1 0x40 MLOAD PUSH2 0x19D SWAP2 SWAP1 PUSH2 0xCBF JUMP JUMPDEST PUSH1 0x40 MLOAD DUP1 SWAP2 SUB SWAP1 RETURN JUMPDEST PUSH2 0x1AE PUSH2 0x5C9 JUMP JUMPDEST STOP JUMPDEST CALLVALUE DUP1 ISZERO PUSH2 0x1BC JUMPI PUSH1 0x0 DUP1 REVERT JUMPDEST POP PUSH2 0x1D7 PUSH1 0x4 DUP1 CALLDATASIZE SUB DUP2 ADD SWAP1 PUSH2 0x1D2 SWAP2 SWAP1 PUSH2 0x8E0 JUMP JUMPDEST PUSH2 0x649 JUMP JUMPDEST STOP JUMPDEST PUSH1 0x0 DUP1 SLOAD SWAP1 PUSH2 0x100 EXP SWAP1 DIV PUSH20 0xFFFFFFFFFFFFFFFFFFFFFFFFFFFFFFFFFFFFFFFF AND PUSH20 0xFFFFFFFFFFFFFFFFFFFFFFFFFFFFFFFFFFFFFFFF AND CALLER PUSH20 0xFFFFFFFFFFFFFFFFFFFFFFFFFFFFFFFFFFFFFFFF AND EQ PUSH2 0x231 JUMPI PUSH1 0x0 DUP1 REVERT JUMPDEST PUSH1 0x0 PUSH1 0x5 PUSH1 0x0 DUP4 DUP2 MSTORE PUSH1 0x20 ADD SWAP1 DUP2 MSTORE PUSH1 0x20 ADD PUSH1 0x0 KECCAK256 SWAP1 POP PUSH1 0x2 DUP1 SLOAD PUSH2 0x256 SWAP2 SWAP1 PUSH2 0xD38 JUMP JUMPDEST DUP2 PUSH1 0x3 ADD SLOAD GT PUSH2 0x29B JUMPI PUSH1 0x40 MLOAD PUSH32 0x8C379A000000000000000000000000000000000000000000000000000000000 DUP2 MSTORE PUSH1 0x4 ADD PUSH2 0x292 SWAP1 PUSH2 0xDB5 JUMP JUMPDEST PUSH1 0x40 MLOAD DUP1 SWAP2 SUB SWAP1 REVERT JUMPDEST DUP1 PUSH1 0x2 ADD PUSH1 0x14 SWAP1 SLOAD SWAP1 PUSH2 0x100 EXP SWAP1 DIV PUSH1 0xFF AND ISZERO PUSH2 0x2ED JUMPI PUSH1 0x40 MLOAD PUSH32 0x8C379A000000000000000000000000000000000000000000000000000000000 DUP2 MSTORE PUSH1 0x4 ADD PUSH2 0x2E4 SWAP1 PUSH2 0xE21 JUMP JUMPDEST PUSH1 0x40 MLOAD DUP1 SWAP2 SUB SWAP1 REVERT JUMPDEST DUP1 PUSH1 0x2 ADD PUSH1 0x0 SWAP1 SLOAD SWAP1 PUSH2 0x100 EXP SWAP1 DIV PUSH20 0xFFFFFFFFFFFFFFFFFFFFFFFFFFFFFFFFFFFFFFFF AND PUSH20 0xFFFFFFFFFFFFFFFFFFFFFFFFFFFFFFFFFFFFFFFF AND PUSH2 0x8FC DUP3 PUSH1 0x1 ADD SLOAD SWAP1 DUP2 ISZERO MUL SWAP1 PUSH1 0x40 MLOAD PUSH1 0x0 PUSH1 0x40 MLOAD DUP1 DUP4 SUB DUP2 DUP6 DUP9 DUP9 CALL SWAP4 POP POP POP POP ISZERO DUP1 ISZERO PUSH2 0x35B JUMPI RETURNDATASIZE PUSH1 0x0 DUP1 RETURNDATACOPY RETURNDATASIZE PUSH1 0x0 REVERT JUMPDEST POP PUSH1 0x1 DUP2 PUSH1 0x2 ADD PUSH1 0x14 PUSH2 0x100 EXP DUP2 SLOAD DUP2 PUSH1 0xFF MUL NOT AND SWAP1 DUP4 ISZERO ISZERO MUL OR SWAP1 SSTORE POP POP POP JUMP JUMPDEST PUSH1 0x3 PUSH1 0x20 MSTORE DUP1 PUSH1 0x0 MSTORE PUSH1 0x40 PUSH1 0x0 KECCAK256 PUSH1 0x0 SWAP2 POP SLOAD SWAP1 PUSH2 0x100 EXP SWAP1 DIV PUSH1 0xFF AND DUP2 JUMP JUMPDEST PUSH1 0x0 DUP1 SLOAD SWAP1 PUSH2 0x100 EXP SWAP1 DIV PUSH20 0xFFFFFFFFFFFFFFFFFFFFFFFFFFFFFFFFFFFFFFFF AND DUP2 JUMP JUMPDEST PUSH1 0x5 PUSH1 0x20 MSTORE DUP1 PUSH1 0x0 MSTORE PUSH1 0x40 PUSH1 0x0 KECCAK256 PUSH1 0x0 SWAP2 POP SWAP1 POP DUP1 PUSH1 0x0 ADD DUP1 SLOAD PUSH2 0x3E4 SWAP1 PUSH2 0xE70 JUMP JUMPDEST DUP1 PUSH1 0x1F ADD PUSH1 0x20 DUP1 SWAP2 DIV MUL PUSH1 0x20 ADD PUSH1 0x40 MLOAD SWAP1 DUP2 ADD PUSH1 0x40 MSTORE DUP1 SWAP3 SWAP2 SWAP1 DUP2 DUP2 MSTORE PUSH1 0x20 ADD DUP3 DUP1 SLOAD PUSH2 0x410 SWAP1 PUSH2 0xE70 JUMP JUMPDEST DUP1 ISZERO PUSH2 0x45D JUMPI DUP1 PUSH1 0x1F LT PUSH2 0x432 JUMPI PUSH2 0x100 DUP1 DUP4 SLOAD DIV MUL DUP4 MSTORE SWAP2 PUSH1 0x20 ADD SWAP2 PUSH2 0x45D JUMP JUMPDEST DUP3 ADD SWAP2 SWAP1 PUSH1 0x0 MSTORE PUSH1 0x20 PUSH1 0x0 KECCAK256 SWAP1 JUMPDEST DUP2 SLOAD DUP2 MSTORE SWAP1 PUSH1 0x1 ADD SWAP1 PUSH1 0x20 ADD DUP1 DUP4 GT PUSH2 0x440 JUMPI DUP3 SWAP1 SUB PUSH1 0x1F AND DUP3 ADD SWAP2 JUMPDEST POP POP POP POP POP SWAP1 DUP1 PUSH1 0x1 ADD SLOAD SWAP1 DUP1 PUSH1 0x2 ADD PUSH1 0x0 SWAP1 SLOAD SWAP1 PUSH2 0x100 EXP SWAP1 DIV PUSH20 0xFFFFFFFFFFFFFFFFFFFFFFFFFFFFFFFFFFFFFFFF AND SWAP1 DUP1 PUSH1 0x2 ADD PUSH1 0x14 SWAP1 SLOAD SWAP1 PUSH2 0x100 EXP SWAP1 DIV PUSH1 0xFF AND SWAP1 DUP1 PUSH1 0x3 ADD SLOAD SWAP1 POP DUP6 JUMP JUMPDEST PUSH1 0x0 DUP1 SLOAD SWAP1 PUSH2 0x100 EXP SWAP1 DIV PUSH20 0xFFFFFFFFFFFFFFFFFFFFFFFFFFFFFFFFFFFFFFFF AND PUSH20 0xFFFFFFFFFFFFFFFFFFFFFFFFFFFFFFFFFFFFFFFF AND CALLER PUSH20 0xFFFFFFFFFFFFFFFFFFFFFFFFFFFFFFFFFFFFFFFF AND EQ PUSH2 0x504 JUMPI PUSH1 0x0 DUP1 REVERT JUMPDEST PUSH1 0x0 PUSH1 0x5 PUSH1 0x0 PUSH1 0x4 PUSH1 0x0 DUP2 SLOAD DUP1 SWAP3 SWAP2 SWAP1 PUSH2 0x51D SWAP1 PUSH2 0xEA2 JUMP JUMPDEST SWAP2 SWAP1 POP SSTORE DUP2 MSTORE PUSH1 0x20 ADD SWAP1 DUP2 MSTORE PUSH1 0x20 ADD PUSH1 0x0 KECCAK256 SWAP1 POP DUP4 DUP2 PUSH1 0x0 ADD SWAP1 DUP1 MLOAD SWAP1 PUSH1 0x20 ADD SWAP1 PUSH2 0x549 SWAP3 SWAP2 SWAP1 PUSH2 0x7F3 JUMP JUMPDEST POP DUP3 DUP2 PUSH1 0x1 ADD DUP2 SWAP1 SSTORE POP DUP2 DUP2 PUSH1 0x2 ADD PUSH1 0x0 PUSH2 0x100 EXP DUP2 SLOAD DUP2 PUSH20 0xFFFFFFFFFFFFFFFFFFFFFFFFFFFFFFFFFFFFFFFF MUL NOT AND SWAP1 DUP4 PUSH20 0xFFFFFFFFFFFFFFFFFFFFFFFFFFFFFFFFFFFFFFFF AND MUL OR SWAP1 SSTORE POP PUSH1 0x0 DUP2 PUSH1 0x2 ADD PUSH1 0x14 PUSH2 0x100 EXP DUP2 SLOAD DUP2 PUSH1 0xFF MUL NOT AND SWAP1 DUP4 ISZERO ISZERO MUL OR SWAP1 SSTORE POP PUSH1 0x0 DUP2 PUSH1 0x3 ADD DUP2 SWAP1 SSTORE POP POP POP POP POP JUMP JUMPDEST PUSH1 0x1 SLOAD DUP2 JUMP JUMPDEST PUSH1 0x1 SLOAD CALLVALUE GT PUSH2 0x5D7 JUMPI PUSH1 0x0 DUP1 REVERT JUMPDEST PUSH1 0x1 PUSH1 0x3 PUSH1 0x0 CALLER PUSH20 0xFFFFFFFFFFFFFFFFFFFFFFFFFFFFFFFFFFFFFFFF AND PUSH20 0xFFFFFFFFFFFFFFFFFFFFFFFFFFFFFFFFFFFFFFFF AND DUP2 MSTORE PUSH1 0x20 ADD SWAP1 DUP2 MSTORE PUSH1 0x20 ADD PUSH1 0x0 KECCAK256 PUSH1 0x0 PUSH2 0x100 EXP DUP2 SLOAD DUP2 PUSH1 0xFF MUL NOT AND SWAP1 DUP4 ISZERO ISZERO MUL OR SWAP1 SSTORE POP PUSH1 0x2 PUSH1 0x0 DUP2 SLOAD DUP1 SWAP3 SWAP2 SWAP1 PUSH2 0x642 SWAP1 PUSH2 0xEA2 JUMP JUMPDEST SWAP2 SWAP1 POP SSTORE POP JUMP JUMPDEST PUSH1 0x0 PUSH1 0x5 PUSH1 0x0 DUP4 DUP2 MSTORE PUSH1 0x20 ADD SWAP1 DUP2 MSTORE PUSH1 0x20 ADD PUSH1 0x0 KECCAK256 SWAP1 POP PUSH1 0x3 PUSH1 0x0 CALLER PUSH20 0xFFFFFFFFFFFFFFFFFFFFFFFFFFFFFFFFFFFFFFFF AND PUSH20 0xFFFFFFFFFFFFFFFFFFFFFFFFFFFFFFFFFFFFFFFF AND DUP2 MSTORE PUSH1 0x20 ADD SWAP1 DUP2 MSTORE PUSH1 0x20 ADD PUSH1 0x0 KECCAK256 PUSH1 0x0 SWAP1 SLOAD SWAP1 PUSH2 0x100 EXP SWAP1 DIV PUSH1 0xFF AND PUSH2 0x6EC JUMPI PUSH1 0x40 MLOAD PUSH32 0x8C379A000000000000000000000000000000000000000000000000000000000 DUP2 MSTORE PUSH1 0x4 ADD PUSH2 0x6E3 SWAP1 PUSH2 0xF37 JUMP JUMPDEST PUSH1 0x40 MLOAD DUP1 SWAP2 SUB SWAP1 REVERT JUMPDEST DUP1 PUSH1 0x4 ADD PUSH1 0x0 CALLER PUSH20 0xFFFFFFFFFFFFFFFFFFFFFFFFFFFFFFFFFFFFFFFF AND PUSH20 0xFFFFFFFFFFFFFFFFFFFFFFFFFFFFFFFFFFFFFFFF AND DUP2 MSTORE PUSH1 0x20 ADD SWAP1 DUP2 MSTORE PUSH1 0x20 ADD PUSH1 0x0 KECCAK256 PUSH1 0x0 SWAP1 SLOAD SWAP1 PUSH2 0x100 EXP SWAP1 DIV PUSH1 0xFF AND ISZERO PUSH2 0x77B JUMPI PUSH1 0x40 MLOAD PUSH32 0x8C379A000000000000000000000000000000000000000000000000000000000 DUP2 MSTORE PUSH1 0x4 ADD PUSH2 0x772 SWAP1 PUSH2 0xFA3 JUMP JUMPDEST PUSH1 0x40 MLOAD DUP1 SWAP2 SUB SWAP1 REVERT JUMPDEST PUSH1 0x1 DUP2 PUSH1 0x4 ADD PUSH1 0x0 CALLER PUSH20 0xFFFFFFFFFFFFFFFFFFFFFFFFFFFFFFFFFFFFFFFF AND PUSH20 0xFFFFFFFFFFFFFFFFFFFFFFFFFFFFFFFFFFFFFFFF AND DUP2 MSTORE PUSH1 0x20 ADD SWAP1 DUP2 MSTORE PUSH1 0x20 ADD PUSH1 0x0 KECCAK256 PUSH1 0x0 PUSH2 0x100 EXP DUP2 SLOAD DUP2 PUSH1 0xFF MUL NOT AND SWAP1 DUP4 ISZERO ISZERO MUL OR SWAP1 SSTORE POP DUP1 PUSH1 0x3 ADD PUSH1 0x0 DUP2 SLOAD DUP1 SWAP3 SWAP2 SWAP1 PUSH2 0x7EA SWAP1 PUSH2 0xEA2 JUMP JUMPDEST SWAP2 SWAP1 POP SSTORE POP POP POP JUMP JUMPDEST DUP3 DUP1 SLOAD PUSH2 0x7FF SWAP1 PUSH2 0xE70 JUMP JUMPDEST SWAP1 PUSH1 0x0 MSTORE PUSH1 0x20 PUSH1 0x0 KECCAK256 SWAP1 PUSH1 0x1F ADD PUSH1 0x20 SWAP1 DIV DUP2 ADD SWAP3 DUP3 PUSH2 0x821 JUMPI PUSH1 0x0 DUP6 SSTORE PUSH2 0x868 JUMP JUMPDEST DUP3 PUSH1 0x1F LT PUSH2 0x83A JUMPI DUP1 MLOAD PUSH1 0xFF NOT AND DUP4 DUP1 ADD OR DUP6 SSTORE PUSH2 0x868 JUMP JUMPDEST DUP3 DUP1 ADD PUSH1 0x1 ADD DUP6 SSTORE DUP3 ISZERO PUSH2 0x868 JUMPI SWAP2 DUP3 ADD JUMPDEST DUP3 DUP2 GT ISZERO PUSH2 0x867 JUMPI DUP3 MLOAD DUP3 SSTORE SWAP2 PUSH1 0x20 ADD SWAP2 SWAP1 PUSH1 0x1 ADD SWAP1 PUSH2 0x84C JUMP JUMPDEST JUMPDEST POP SWAP1 POP PUSH2 0x875 SWAP2 SWAP1 PUSH2 0x879 JUMP JUMPDEST POP SWAP1 JUMP JUMPDEST JUMPDEST DUP1 DUP3 GT ISZERO PUSH2 0x892 JUMPI PUSH1 0x0 DUP2 PUSH1 0x0 SWAP1 SSTORE POP PUSH1 0x1 ADD PUSH2 0x87A JUMP JUMPDEST POP SWAP1 JUMP JUMPDEST PUSH1 0x0 PUSH1 0x40 MLOAD SWAP1 POP SWAP1 JUMP JUMPDEST PUSH1 0x0 DUP1 REVERT JUMPDEST PUSH1 0x0 DUP1 REVERT JUMPDEST PUSH1 0x0 DUP2 SWAP1 POP SWAP2 SWAP1 POP JUMP JUMPDEST PUSH2 0x8BD DUP2 PUSH2 0x8AA JUMP JUMPDEST DUP2 EQ PUSH2 0x8C8 JUMPI PUSH1 0x0 DUP1 REVERT JUMPDEST POP JUMP JUMPDEST PUSH1 0x0 DUP2 CALLDATALOAD SWAP1 POP PUSH2 0x8DA DUP2 PUSH2 0x8B4 JUMP JUMPDEST SWAP3 SWAP2 POP POP JUMP JUMPDEST PUSH1 0x0 PUSH1 0x20 DUP3 DUP5 SUB SLT ISZERO PUSH2 0x8F6 JUMPI PUSH2 0x8F5 PUSH2 0x8A0 JUMP JUMPDEST JUMPDEST PUSH1 0x0 PUSH2 0x904 DUP5 DUP3 DUP6 ADD PUSH2 0x8CB JUMP JUMPDEST SWAP2 POP POP SWAP3 SWAP2 POP POP JUMP JUMPDEST PUSH1 0x0 PUSH20 0xFFFFFFFFFFFFFFFFFFFFFFFFFFFFFFFFFFFFFFFF DUP3 AND SWAP1 POP SWAP2 SWAP1 POP JUMP JUMPDEST PUSH1 0x0 PUSH2 0x938 DUP3 PUSH2 0x90D JUMP JUMPDEST SWAP1 POP SWAP2 SWAP1 POP JUMP JUMPDEST PUSH2 0x948 DUP2 PUSH2 0x92D JUMP JUMPDEST DUP2 EQ PUSH2 0x953 JUMPI PUSH1 0x0 DUP1 REVERT JUMPDEST POP JUMP JUMPDEST PUSH1 0x0 DUP2 CALLDATALOAD SWAP1 POP PUSH2 0x965 DUP2 PUSH2 0x93F JUMP JUMPDEST SWAP3 SWAP2 POP POP JUMP JUMPDEST PUSH1 0x0 PUSH1 0x20 DUP3 DUP5 SUB SLT ISZERO PUSH2 0x981 JUMPI PUSH2 0x980 PUSH2 0x8A0 JUMP JUMPDEST JUMPDEST PUSH1 0x0 PUSH2 0x98F DUP5 DUP3 DUP6 ADD PUSH2 0x956 JUMP JUMPDEST SWAP2 POP POP SWAP3 SWAP2 POP POP JUMP JUMPDEST PUSH1 0x0 DUP2 ISZERO ISZERO SWAP1 POP SWAP2 SWAP1 POP JUMP JUMPDEST PUSH2 0x9AD DUP2 PUSH2 0x998 JUMP JUMPDEST DUP3 MSTORE POP POP JUMP JUMPDEST PUSH1 0x0 PUSH1 0x20 DUP3 ADD SWAP1 POP PUSH2 0x9C8 PUSH1 0x0 DUP4 ADD DUP5 PUSH2 0x9A4 JUMP JUMPDEST SWAP3 SWAP2 POP POP JUMP JUMPDEST PUSH2 0x9D7 DUP2 PUSH2 0x92D JUMP JUMPDEST DUP3 MSTORE POP POP JUMP JUMPDEST PUSH1 0x0 PUSH1 0x20 DUP3 ADD SWAP1 POP PUSH2 0x9F2 PUSH1 0x0 DUP4 ADD DUP5 PUSH2 0x9CE JUMP JUMPDEST SWAP3 SWAP2 POP POP JUMP JUMPDEST PUSH1 0x0 DUP2 MLOAD SWAP1 POP SWAP2 SWAP1 POP JUMP JUMPDEST PUSH1 0x0 DUP3 DUP3 MSTORE PUSH1 0x20 DUP3 ADD SWAP1 POP SWAP3 SWAP2 POP POP JUMP JUMPDEST PUSH1 0x0 JUMPDEST DUP4 DUP2 LT ISZERO PUSH2 0xA32 JUMPI DUP1 DUP3 ADD MLOAD DUP2 DUP5 ADD MSTORE PUSH1 0x20 DUP2 ADD SWAP1 POP PUSH2 0xA17 JUMP JUMPDEST DUP4 DUP2 GT ISZERO PUSH2 0xA41 JUMPI PUSH1 0x0 DUP5 DUP5 ADD MSTORE JUMPDEST POP POP POP POP JUMP JUMPDEST PUSH1 0x0 PUSH1 0x1F NOT PUSH1 0x1F DUP4 ADD AND SWAP1 POP SWAP2 SWAP1 POP JUMP JUMPDEST PUSH1 0x0 PUSH2 0xA63 DUP3 PUSH2 0x9F8 JUMP JUMPDEST PUSH2 0xA6D DUP2 DUP6 PUSH2 0xA03 JUMP JUMPDEST SWAP4 POP PUSH2 0xA7D DUP2 DUP6 PUSH1 0x20 DUP7 ADD PUSH2 0xA14 JUMP JUMPDEST PUSH2 0xA86 DUP2 PUSH2 0xA47 JUMP JUMPDEST DUP5 ADD SWAP2 POP POP SWAP3 SWAP2 POP POP JUMP JUMPDEST PUSH2 0xA9A DUP2 PUSH2 0x8AA JUMP JUMPDEST DUP3 MSTORE POP POP JUMP JUMPDEST PUSH1 0x0 PUSH2 0xAAB DUP3 PUSH2 0x90D JUMP JUMPDEST SWAP1 POP SWAP2 SWAP1 POP JUMP JUMPDEST PUSH2 0xABB DUP2 PUSH2 0xAA0 JUMP JUMPDEST DUP3 MSTORE POP POP JUMP JUMPDEST PUSH1 0x0 PUSH1 0xA0 DUP3 ADD SWAP1 POP DUP2 DUP2 SUB PUSH1 0x0 DUP4 ADD MSTORE PUSH2 0xADB DUP2 DUP9 PUSH2 0xA58 JUMP JUMPDEST SWAP1 POP PUSH2 0xAEA PUSH1 0x20 DUP4 ADD DUP8 PUSH2 0xA91 JUMP JUMPDEST PUSH2 0xAF7 PUSH1 0x40 DUP4 ADD DUP7 PUSH2 0xAB2 JUMP JUMPDEST PUSH2 0xB04 PUSH1 0x60 DUP4 ADD DUP6 PUSH2 0x9A4 JUMP JUMPDEST PUSH2 0xB11 PUSH1 0x80 DUP4 ADD DUP5 PUSH2 0xA91 JUMP JUMPDEST SWAP7 SWAP6 POP POP POP POP POP POP JUMP JUMPDEST PUSH1 0x0 DUP1 REVERT JUMPDEST PUSH1 0x0 DUP1 REVERT JUMPDEST PUSH32 0x4E487B7100000000000000000000000000000000000000000000000000000000 PUSH1 0x0 MSTORE PUSH1 0x41 PUSH1 0x4 MSTORE PUSH1 0x24 PUSH1 0x0 REVERT JUMPDEST PUSH2 0xB5D DUP3 PUSH2 0xA47 JUMP JUMPDEST DUP2 ADD DUP2 DUP2 LT PUSH8 0xFFFFFFFFFFFFFFFF DUP3 GT OR ISZERO PUSH2 0xB7C JUMPI PUSH2 0xB7B PUSH2 0xB25 JUMP JUMPDEST JUMPDEST DUP1 PUSH1 0x40 MSTORE POP POP POP JUMP JUMPDEST PUSH1 0x0 PUSH2 0xB8F PUSH2 0x896 JUMP JUMPDEST SWAP1 POP PUSH2 0xB9B DUP3 DUP3 PUSH2 0xB54 JUMP JUMPDEST SWAP2 SWAP1 POP JUMP JUMPDEST PUSH1 0x0 PUSH8 0xFFFFFFFFFFFFFFFF DUP3 GT ISZERO PUSH2 0xBBB JUMPI PUSH2 0xBBA PUSH2 0xB25 JUMP JUMPDEST JUMPDEST PUSH2 0xBC4 DUP3 PUSH2 0xA47 JUMP JUMPDEST SWAP1 POP PUSH1 0x20 DUP2 ADD SWAP1 POP SWAP2 SWAP1 POP JUMP JUMPDEST DUP3 DUP2 DUP4 CALLDATACOPY PUSH1 0x0 DUP4 DUP4 ADD MSTORE POP POP POP JUMP JUMPDEST PUSH1 0x0 PUSH2 0xBF3 PUSH2 0xBEE DUP5 PUSH2 0xBA0 JUMP JUMPDEST PUSH2 0xB85 JUMP JUMPDEST SWAP1 POP DUP3 DUP2 MSTORE PUSH1 0x20 DUP2 ADD DUP5 DUP5 DUP5 ADD GT ISZERO PUSH2 0xC0F JUMPI PUSH2 0xC0E PUSH2 0xB20 JUMP JUMPDEST JUMPDEST PUSH2 0xC1A DUP5 DUP3 DUP6 PUSH2 0xBD1 JUMP JUMPDEST POP SWAP4 SWAP3 POP POP POP JUMP JUMPDEST PUSH1 0x0 DUP3 PUSH1 0x1F DUP4 ADD SLT PUSH2 0xC37 JUMPI PUSH2 0xC36 PUSH2 0xB1B JUMP JUMPDEST JUMPDEST DUP2 CALLDATALOAD PUSH2 0xC47 DUP5 DUP3 PUSH1 0x20 DUP7 ADD PUSH2 0xBE0 JUMP JUMPDEST SWAP2 POP POP SWAP3 SWAP2 POP POP JUMP JUMPDEST PUSH1 0x0 DUP1 PUSH1 0x0 PUSH1 0x60 DUP5 DUP7 SUB SLT ISZERO PUSH2 0xC69 JUMPI PUSH2 0xC68 PUSH2 0x8A0 JUMP JUMPDEST JUMPDEST PUSH1 0x0 DUP5 ADD CALLDATALOAD PUSH8 0xFFFFFFFFFFFFFFFF DUP2 GT ISZERO PUSH2 0xC87 JUMPI PUSH2 0xC86 PUSH2 0x8A5 JUMP JUMPDEST JUMPDEST PUSH2 0xC93 DUP7 DUP3 DUP8 ADD PUSH2 0xC22 JUMP JUMPDEST SWAP4 POP POP PUSH1 0x20 PUSH2 0xCA4 DUP7 DUP3 DUP8 ADD PUSH2 0x8CB JUMP JUMPDEST SWAP3 POP POP PUSH1 0x40 PUSH2 0xCB5 DUP7 DUP3 DUP8 ADD PUSH2 0x956 JUMP JUMPDEST SWAP2 POP POP SWAP3 POP SWAP3 POP SWAP3 JUMP JUMPDEST PUSH1 0x0 PUSH1 0x20 DUP3 ADD SWAP1 POP PUSH2 0xCD4 PUSH1 0x0 DUP4 ADD DUP5 PUSH2 0xA91 JUMP JUMPDEST SWAP3 SWAP2 POP POP JUMP JUMPDEST PUSH32 0x4E487B7100000000000000000000000000000000000000000000000000000000 PUSH1 0x0 MSTORE PUSH1 0x12 PUSH1 0x4 MSTORE PUSH1 0x24 PUSH1 0x0 REVERT JUMPDEST PUSH32 0x4E487B7100000000000000000000000000000000000000000000000000000000 PUSH1 0x0 MSTORE PUSH1 0x11 PUSH1 0x4 MSTORE PUSH1 0x24 PUSH1 0x0 REVERT JUMPDEST PUSH1 0x0 PUSH2 0xD43 DUP3 PUSH2 0x8AA JUMP JUMPDEST SWAP2 POP PUSH2 0xD4E DUP4 PUSH2 0x8AA JUMP JUMPDEST SWAP3 POP DUP3 PUSH2 0xD5E JUMPI PUSH2 0xD5D PUSH2 0xCDA JUMP JUMPDEST JUMPDEST DUP3 DUP3 DIV SWAP1 POP SWAP3 SWAP2 POP POP JUMP JUMPDEST PUSH32 0x417070726F766573206D757374206265206D6F7265207468616E203530250000 PUSH1 0x0 DUP3 ADD MSTORE POP JUMP JUMPDEST PUSH1 0x0 PUSH2 0xD9F PUSH1 0x1E DUP4 PUSH2 0xA03 JUMP JUMPDEST SWAP2 POP PUSH2 0xDAA DUP3 PUSH2 0xD69 JUMP JUMPDEST PUSH1 0x20 DUP3 ADD SWAP1 POP SWAP2 SWAP1 POP JUMP JUMPDEST PUSH1 0x0 PUSH1 0x20 DUP3 ADD SWAP1 POP DUP2 DUP2 SUB PUSH1 0x0 DUP4 ADD MSTORE PUSH2 0xDCE DUP2 PUSH2 0xD92 JUMP JUMPDEST SWAP1 POP SWAP2 SWAP1 POP JUMP JUMPDEST PUSH32 0x5265717565737420616C726561647920636F6D706C6574650000000000000000 PUSH1 0x0 DUP3 ADD MSTORE POP JUMP JUMPDEST PUSH1 0x0 PUSH2 0xE0B PUSH1 0x18 DUP4 PUSH2 0xA03 JUMP JUMPDEST SWAP2 POP PUSH2 0xE16 DUP3 PUSH2 0xDD5 JUMP JUMPDEST PUSH1 0x20 DUP3 ADD SWAP1 POP SWAP2 SWAP1 POP JUMP JUMPDEST PUSH1 0x0 PUSH1 0x20 DUP3 ADD SWAP1 POP DUP2 DUP2 SUB PUSH1 0x0 DUP4 ADD MSTORE PUSH2 0xE3A DUP2 PUSH2 0xDFE JUMP JUMPDEST SWAP1 POP SWAP2 SWAP1 POP JUMP JUMPDEST PUSH32 0x4E487B7100000000000000000000000000000000000000000000000000000000 PUSH1 0x0 MSTORE PUSH1 0x22 PUSH1 0x4 MSTORE PUSH1 0x24 PUSH1 0x0 REVERT JUMPDEST PUSH1 0x0 PUSH1 0x2 DUP3 DIV SWAP1 POP PUSH1 0x1 DUP3 AND DUP1 PUSH2 0xE88 JUMPI PUSH1 0x7F DUP3 AND SWAP2 POP JUMPDEST PUSH1 0x20 DUP3 LT DUP2 EQ ISZERO PUSH2 0xE9C JUMPI PUSH2 0xE9B PUSH2 0xE41 JUMP JUMPDEST JUMPDEST POP SWAP2 SWAP1 POP JUMP JUMPDEST PUSH1 0x0 PUSH2 0xEAD DUP3 PUSH2 0x8AA JUMP JUMPDEST SWAP2 POP PUSH32 0xFFFFFFFFFFFFFFFFFFFFFFFFFFFFFFFFFFFFFFFFFFFFFFFFFFFFFFFFFFFFFFFF DUP3 EQ ISZERO PUSH2 0xEE0 JUMPI PUSH2 0xEDF PUSH2 0xD09 JUMP JUMPDEST JUMPDEST PUSH1 0x1 DUP3 ADD SWAP1 POP SWAP2 SWAP1 POP JUMP JUMPDEST PUSH32 0x4E6F7420616E20617070726F7665720000000000000000000000000000000000 PUSH1 0x0 DUP3 ADD MSTORE POP JUMP JUMPDEST PUSH1 0x0 PUSH2 0xF21 PUSH1 0xF DUP4 PUSH2 0xA03 JUMP JUMPDEST SWAP2 POP PUSH2 0xF2C DUP3 PUSH2 0xEEB JUMP JUMPDEST PUSH1 0x20 DUP3 ADD SWAP1 POP SWAP2 SWAP1 POP JUMP JUMPDEST PUSH1 0x0 PUSH1 0x20 DUP3 ADD SWAP1 POP DUP2 DUP2 SUB PUSH1 0x0 DUP4 ADD MSTORE PUSH2 0xF50 DUP2 PUSH2 0xF14 JUMP JUMPDEST SWAP1 POP SWAP2 SWAP1 POP JUMP JUMPDEST PUSH32 0x416C726561647920617070726F76656400000000000000000000000000000000 PUSH1 0x0 DUP3 ADD MSTORE POP JUMP JUMPDEST PUSH1 0x0 PUSH2 0xF8D PUSH1 0x10 DUP4 PUSH2 0xA03 JUMP JUMPDEST SWAP2 POP PUSH2 0xF98 DUP3 PUSH2 0xF57 JUMP JUMPDEST PUSH1 0x20 DUP3 ADD SWAP1 POP SWAP2 SWAP1 POP JUMP JUMPDEST PUSH1 0x0 PUSH1 0x20 DUP3 ADD SWAP1 POP DUP2 DUP2 SUB PUSH1 0x0 DUP4 ADD MSTORE PUSH2 0xFBC DUP2 PUSH2 0xF80 JUMP JUMPDEST SWAP1 POP SWAP2 SWAP1 POP JUMP INVALID LOG2 PUSH5 0x6970667358 0x22 SLT KECCAK256 0x4E 0x4D GASPRICE 0xE8 PUSH11 0x8AB0DFAA517A61E39048BF 0x29 PUSH3 0xCD1C91 SLOAD GT NUMBER 0xE1 0xAC PUSH9 0xF1407CCDCA64736F6C PUSH4 0x43000809 STOP CALLER "},"gasEstimates":{"creation":{"codeDepositCost":"817800","executionCost":"infinite","totalCost":"infinite"},"external":{"approveRequest(uint256)":"infinite","approvers(address)":"2868","contribute()":"51002","createRequest(string,uint256,address)":"infinite","finalizeRequest(uint256)":"infinite","manager()":"2556","minimumContribution()":"2451","requests(uint256)":"infinite"}},"methodIdentifiers":{"approveRequest(uint256)":"d7d1bbdb","approvers(address)":"0a144391","contribute()":"d7bb99ba","createRequest(string,uint256,address)":"8a9cfd55","finalizeRequest(uint256)":"03441006","manager()":"481c6a75","minimumContribution()":"937e09b1","requests(uint256)":"81d12c58"}},"storageLayout":{"storage":[{"astId":57,"contract":"Campaign.sol:Campaign","label":"manager","offset":0,"slot":"0","type":"t_address"},{"astId":59,"contract":"Campaign.sol:Campaign","label":"minimumContribution","offset":0,"slot":"1","type":"t_uint256"},{"astId":61,"contract":"Campaign.sol:Campaign","label":"approversCount","offset":0,"slot":"2","type":"t_uint256"},{"astId":65,"contract":"Campaign.sol:Campaign","label":"approvers","offset":0,"slot":"3","type":"t_mapping(t_address,t_bool)"},{"astId":67,"contract":"Campaign.sol:Campaign","label":"requestCount","offset":0,"slot":"4","type":"t_uint256"},{"astId":72,"contract":"Campaign.sol:Campaign","label":"requests","offset":0,"slot":"5","type":"t_mapping(t_uint256,t_struct(Request)55_storage)"}],"types":{"t_address":{"encoding":"inplace","label":"address","numberOfBytes":"20"},"t_address_payable":{"encoding":"inplace","label":"address payable","numberOfBytes":"20"},"t_bool":{"encoding":"inplace","label":"bool","numberOfBytes":"1"},"t_mapping(t_address,t_bool)":{"encoding":"mapping","key":"t_address","label":"mapping(address => bool)","numberOfBytes":"32","value":"t_bool"},"t_mapping(t_uint256,t_struct(Request)55_storage)":{"encoding":"mapping","key":"t_uint256","label":"mapping(uint256 => struct Campaign.Request)","numberOfBytes":"32","value":"t_struct(Request)55_storage"},"t_string_storage":{"encoding":"bytes","label":"string","numberOfBytes":"32"},"t_struct(Request)55_storage":{"encoding":"inplace","label":"struct Campaign.Request","members":[{"astId":42,"contract":"Campaign.sol:Campaign","label":"description","offset":0,"slot":"0","type":"t_string_storage"},{"astId":44,"contract":"Campaign.sol:Campaign","label":"value","offset":0,"slot":"1","type":"t_uint256"},{"astId":46,"contract":"Campaign.sol:Campaign","label":"recipient","offset":0,"slot":"2","type":"t_address_payable"},{"astId":48,"contract":"Campaign.sol:Campaign","label":"complete","offset":20,"slot":"2","type":"t_bool"},{"astId":50,"contract":"Campaign.sol:Campaign","label":"approvalCount","offset":0,"slot":"3","type":"t_uint256"},{"astId":54,"contract":"Campaign.sol:Campaign","label":"approvals","offset":0,"slot":"4","type":"t_mapping(t_address,t_bool)"}],"numberOfBytes":"160"},"t_uint256":{"encoding":"inplace","label":"uint256","numberOfBytes":"32"}}},"userdoc":{"kind":"user","methods":{},"version":1}}